:020000040800F2
:10000000C0060020CD010008953B00089D3A00087D
:10001000913B000887020008B95400080000000066
:10002000000000000000000000000000993B0008F4
:100030008B02000800000000973B0008394E0008C2
:10004000E7010008E7010008E7010008E7010008F0
:10005000E7010008E7010008E7010008E7010008E0
:10006000E7010008E7010008E7010008E7010008D0
:10007000E7010008E7010008E7010008E7010008C0
:10008000E7010008E7010008E7010008E7010008B0
:10009000E7010008E7010008E7010008E7010008A0
:1000A000E7010008E7010008E7010008E701000890
:1000B0009D4E0008E7010008CD4E0008E70100084A
:1000C000E7010008E7010008E7010008E701000870
:1000D000E7010008294F0008E7010008E7010008D0
:1000E000E7010008E7010008E7010008E701000850
:1000F000E7010008E7010008E7010008E701000840
:10010000E7010008E7010008F14E0008E7010008D8
:10011000E7010008E7010008E7010008E70100081F
:10012000E7010008E7010008E7010008E70100080F
:1001300000F002F800F03AF80AA090E8000C8244BF
:100140008344AAF10107DA4501D100F02FF8AFF29C
:10015000090EBAE80F0013F0010F18BFFB1A43F0A5
:10016000010318470074000020740000103A24BFF7
:1001700078C878C1FAD8520724BF30C830C144BF0C
:1001800004680C607047000000230024002500264E
:10019000103A28BF78C1FBD8520728BF30C148BFEA
:1001A0000B6070471FB51FBD10B510BD00F031F8D2
:1001B0001146FFF7F7FF05F081F900F04FF803B49F
:1001C000FFF7F2FF03BC00F057F800000948804732
:1001D00009480047FEE7FEE7FEE7FEE7FEE7FEE729
:1001E000FEE7FEE7FEE7FEE704480549054A064B41
:1001F000704700003D4E000831010008C00000209B
:10020000C0060020C0020020C002002070477047D6
:100210007047754600F02CF8AE4605006946534617
:1002200020F00700854618B020B5FFF7DDFFBDE8D8
:1002300020404FF000064FF000074FF000084FF04D
:10024000000B21F00701AC46ACE8C009ACE8C009DE
:10025000ACE8C009ACE8C0098D46704710B504464B
:10026000AFF300802046BDE81040FFF7A8BF0000B4
:10027000004870475C00002001491820ABBEFEE733
:1002800026000200704700BFFEE77047002100E033
:10029000491C8142FCD370470848806940F008003F
:1002A000064988610648006820F00F00044908608C
:1002B0000846006840F003000860704700100240E4
:1002C000040C01402148806940F004001F49886106
:1002D0000846806940F0400088611D48006820F0B1
:1002E0000F001B4908600846006840F008000860DD
:1002F0001848006818490840164908600846006810
:1003000040F4006008600846006840F4004008605F
:100310000846006840F4002008600D480C30006872
:100320000B490C3108600B480C30006840F00400A9
:1003300008490C3108600846006840F00800086071
:100340000846006840F01000086070470010024046
:100350000008014000180140FF00F0FF10488069CC
:1003600040F008000E4988610846806940F040006E
:1003700088610C48006820F470000A49086008464B
:10038000006840F4401008600748006820F47000DE
:10039000054908600846006840F44010086070474E
:1003A00000100240000C014000180140014601F01D
:1003B00007021202054B18684FF6FF031840044B62
:1003C00018431043014B1860704700000CED00E02B
:1003D0000000FA0500B503464FF4585001F0FEFC4A
:1003E000002001F007FD4FF4305001F0F7FC00222F
:1003F00003E0184601F0FEFC521C02488242F8DB82
:1004000000BD000000DC05002DE9F04F05460E465A
:1004100092469B46002457460320A0EB4A09BBF1B5
:10042000000F48D144E0F21B91B22A1990B2099A08
:1004300000F099F8321B91B2EA1990B2099A00F0D3
:1004400092F8321991B2EA1990B2099A00F08BF839
:10045000F21991B22A1990B2099A00F084F8F219AF
:1004600091B22A1B90B2099A00F07DF8321991B22C
:10047000EA1B90B2099A00F076F8F21B91B22A1B9F
:1004800090B2099A00F06FF8321B91B2EA1B90B259
:10049000099A00F068F8641CB9F1000F03DAA000B3
:1004A000801D814404E0E01B80000A3081447F1EEF
:1004B000BC42B8DD55E052E0A04641E0A6EB0802A0
:1004C00091B22A1990B2099A00F04DF8321B91B2FC
:1004D00005EB080290B2099A00F045F8321991B282
:1004E00005EB080290B2099A00F03DF806EB08020D
:1004F00091B22A1990B2099A00F035F806EB080279
:1005000091B22A1B90B2099A00F02DF8321991B2DB
:10051000A5EB080290B2099A00F025F8A6EB0802B4
:1005200091B22A1B90B2099A00F01DF8321B91B2C9
:10053000A5EB080290B2099A00F015F808F101083D
:10054000B845BBDD641CB9F1000F03DAA000801DC3
:10055000814404E0E01B80000A3081447F1EBC42DD
:10056000AADDBDE8F08F10B503460C464FF42850C5
:1005700001F034FC181201F03DFC42F6012001F0BC
:100580002DFCD8B201F036FC4FF42C5001F026FCC3
:10059000201201F02FFC42F6013001F01FFCE0B206
:1005A00001F028FC4FF4305001F018FC104601F027
:1005B00021FC10BDF0B504460D46059F00264FF402
:1005C000285001F00BFC201201F014FC42F601202F
:1005D00001F004FCE0B201F00DFC42F6022001F053
:1005E000FDFB2919491EC1F30F2001F003FC42F65F
:1005F000032001F0F3FB2919491EC8B201F0FAFBF0
:100600004FF42C5001F0EAFB101201F0F3FB42F61C
:10061000013001F0E3FBD0B201F0ECFB42F6023016
:1006200001F0DCFB9918491EC1F30F2001F0E2FB39
:1006300042F6033001F0D2FB9918491EC8B201F00E
:10064000D9FB4FF4305001F0C9FB00BF03E038463E
:1006500001F0D0FB761C05FB03F0B042F7D8F0BDEB
:1006600010B55748406940F48070554948610846C4
:10067000806940F0080088610846806940F02000E9
:1006800088610846806940F04000886108468069BA
:1006900040F4807088614B48006820F00F004949A1
:1006A00008600846006840F003000860464800689B
:1006B00046490840444908600846006844490843E0
:1006C00041490860081F006800F0FF20091F08600A
:1006D0000846006840F0BB1008603E4800680020F3
:1006E0003C4908600846006840F0BB300860081FBD
:1006F000006820F07040091F08600846006840F05C
:10070000304008603448406820F470203249486026
:100710000846406840F4302048600846006820F0F1
:100720000F0008600846006840F00B0008600020D9
:100730004FF020418861C861284908604FF020408F
:10074000806940F480504FF02041886108468069FC
:1007500040F4804088610846806940F0100088615C
:100760000846C069C8610846C06940F00100C86118
:100770000846C06940F47060C86118480068C1F854
:100780001C0116480068C1F81C010846D0F81C017D
:1007900040F44070C1F81C010846806940F0010037
:1007A00088610F48FFF772FD00F01CF80548103013
:1007B000006840F0010003491031086010BD0000DE
:1007C00000100240000C01400414014000F0FF0042
:1007D000BB0B00BB04180140002001401C0100A01D
:1007E00020A1070010B555214FF4704001F0FAFA2E
:1007F000AA214FF2010001F0F5FA52214FF2020056
:1008000001F0F0FA08214FF2030001F0EBFA0121A8
:100810004FF2040001F0E6FA0D214FF4304001F0F0
:10082000E1FA0D214BF2010001F0DCFA0D214BF24F
:10083000020001F0D7FA35214FF4364001F0D2FA28
:1008400035214BF2016001F0CDFA35214BF2026007
:1008500001F0C8FA0D214FF4314001F0C3FA0D2127
:100860004BF2011001F0BEFA0D214BF2021001F023
:10087000B9FA35214FF4374001F0B4FA35214BF283
:10088000017001F0AFFA35214BF2027001F0AAFAC3
:1008900000214FF4324001F0A5FA00214BF2012073
:1008A00001F0A0FA00214BF2022001F09BFA242172
:1008B0004FF4384001F096FA24214BF6010001F084
:1008C00091FA24214BF6020001F08CFA01214FF439
:1008D0003F4001F087FA08214FF4334001F082FADB
:1008E00008214BF2013001F07DFA08214BF2023071
:1008F00001F078FA34214FF4394001F073FA3421D1
:100900004BF6011001F06EFA34214BF6021001F0A3
:1009100069FA24214FF43A4001F064FA24214BF69D
:10092000012001F05FFA24214BF6022001F05AFA6F
:1009300000214FF43C4001F055FA88214BF601406C
:1009400001F050FA00214BF6024001F04BFA002171
:100950004FF43D4001F046FA88214BF6015001F07A
:1009600041FA00214BF6025001F03CFA00214FF40D
:100970003E4001F037FAA3214BF6016001F032FA54
:1009800000214FF4514001F02DFA05214DF20110E4
:1009900001F028FA00214DF2021001F023FA402163
:1009A0004DF2031001F01EFA00214DF2041001F087
:1009B00019FA60214DF2051001F014FA00214DF2F0
:1009C000061001F00FFA90214DF2071001F00AFA1B
:1009D00000214DF2081001F005FA99214DF209109D
:1009E00001F000FA00214DF20A1001F0FBF9BB21E1
:1009F0004DF20B1001F0F6F900214DF20C1001F050
:100A0000F1F9DC214DF20D1001F0ECF901214DF26C
:100A10000E1001F0E7F904214DF20F1001F0E2F998
:100A200001214DF2101001F0DDF925214DF21110D8
:100A300001F0D8F901214DF2121001F0D3F959213A
:100A40004DF2131001F0CEF901214DF2141001F016
:100A5000C9F982214DF2151001F0C4F901214DF2BE
:100A6000161001F0BFF9C6214DF2171001F0BAF9C6
:100A700002214DF2181001F0B5F901214DF21910C3
:100A800001F0B0F902214DF21A1001F0ABF9022188
:100A90004DF21B1001F0A6F902214DF21C1001F0DD
:100AA000A1F939214DF21D1001F09CF902214DF2FE
:100AB0001E1001F097F979214DF21F1001F092F903
:100AC00002214DF2201001F08DF9A1214DF22110EB
:100AD00001F088F902214DF2221001F083F9D921A9
:100AE0004DF2231001F07EF903214DF2241001F0A4
:100AF00079F900214DF2251001F074F903214DF22E
:100B0000261001F06FF938214DF2271001F06AF933
:100B100003214DF2281001F065F967214DF22910EB
:100B200001F060F903214DF22A1001F05BF98F21E9
:100B30004DF22B1001F056F903214DF22C1001F06B
:100B400051F9CD214DF22D1001F04CF903214DF258
:100B50002E1001F047F9FD214DF22F1001F042F95E
:100B600003214DF2301001F03DF9FE214DF231101C
:100B700001F038F903214DF2321001F033F9FF2171
:100B80004DF2331001F02EF900214FF4524001F0E4
:100B900029F905214DF2012001F024F900214DF23F
:100BA000022001F01FF940214DF2032001F01AF953
:100BB00000214DF2042001F015F96D214DF20520C0
:100BC00001F010F900214DF2062001F00BF99021FF
:100BD0004DF2072001F006F900214DF2082001F046
:100BE00001F999214DF2092001F0FCF800214DF2A4
:100BF0000A2001F0F7F8BB214DF20B2001F0F2F8CA
:100C000000214DF20C2001F0EDF8DC214DF20D2019
:100C100001F0E8F801214DF20E2001F0E3F8042183
:100C20004DF20F2001F0DEF801214DF2102001F00D
:100C3000D9F825214DF2112001F0D4F801214DF20F
:100C4000122001F0CFF859214DF2132001F0CAF81B
:100C500001214DF2142001F0C5F882214DF215203A
:100C600001F0C0F801214DF2162001F0BBF8C621B9
:100C70004DF2172001F0B6F802214DF2182001F0D4
:100C8000B1F801214DF2192001F0ACF802214DF22A
:100C90001A2001F0A7F802214DF21B2001F0A2F862
:100CA00002214DF21C2001F09DF839214DF21D204A
:100CB00001F098F802214DF21E2001F093F87921FD
:100CC0004DF21F2001F08EF802214DF2202001F09C
:100CD00089F8A1214DF2212001F084F802214DF282
:100CE000222001F07FF8D9214DF2232001F07AF87B
:100CF00003214DF2242001F075F800214DF225204A
:100D000001F070F803214DF2262001F06BF8382134
:100D10004DF2272001F066F803214DF2282001F062
:100D200061F867214DF2292001F05CF803214DF2B2
:100D30002A2001F057F88F214DF22B2001F052F8B4
:100D400003214DF22C2001F04DF8CD214DF22D2044
:100D500001F048F803214DF22E2001F043F8FD2167
:100D60004DF22F2001F03EF803214DF2302001F02A
:100D700039F8FE214DF2312001F034F803214DF213
:100D8000322001F02FF8FF214DF2332001F02AF834
:100D900000214FF4534001F025F805214DF20130B8
:100DA00001F020F800214DF2023001F01BF8402143
:100DB0004DF2033001F016F800214DF2043001F03D
:100DC00011F86D214DF2053001F00CF800214DF2C3
:100DD000063001F007F890214DF2073001F002F8DB
:100DE00000214DF2083000F0FDFF99214DF209304D
:100DF00000F0F8FF00214DF20A3000F0F3FFBB21B4
:100E00004DF20B3000F0EEFF00214DF20C3000F0FF
:100E1000E9FFDC214DF20D3000F0E4FF01214DF23D
:100E20000E3000F0DFFF04214DF20F3000F0DAFF4A
:100E300001214DF2103000F0D5FF25214DF2113087
:100E400000F0D0FF01214DF2123000F0CBFF59210C
:100E50004DF2133000F0C6FF01214DF2143000F0C6
:100E6000C1FF82214DF2153000F0BCFF01214DF28F
:100E7000163000F0B7FFC6214DF2173000F0B2FF78
:100E800002214DF2183000F0ADFF01214DF2193072
:100E900000F0A8FF02214DF21A3000F0A3FF02215A
:100EA0004DF21B3000F09EFF02214DF21C3000F08D
:100EB00099FF39214DF21D3000F094FF02214DF2CF
:100EC0001E3000F08FFF79214DF21F3000F08AFFB5
:100ED00002214DF2203000F085FFA1214DF221309A
:100EE00000F080FF02214DF2223000F07BFFD9217B
:100EF0004DF2233000F076FF03214DF2243000F054
:100F000071FF00214DF2253000F06CFF03214DF2FE
:100F1000263000F067FF38214DF2273000F062FFE5
:100F200003214DF2283000F05DFF67214DF229309A
:100F300000F058FF03214DF22A3000F053FF8F21BB
:100F40004DF22B3000F04EFF03214DF22C3000F01B
:100F500049FFCD214DF22D3000F044FF03214DF229
:100F60002E3000F03FFFFD214DF22F3000F03AFF10
:100F700003214DF2303000F035FFFE214DF23130CB
:100F800000F030FF03214DF2323000F02BFFFF2143
:100F90004DF2333000F026FF00214FF4544000F0B2
:100FA00021FF05214DF2014000F01CFF00214DF210
:100FB000024000F017FF40214DF2034000F012FF05
:100FC00000214DF2044000F00DFF6D214DF205406F
:100FD00000F008FF00214DF2064000F003FF9021D1
:100FE0004DF2074000F0FEFE00214DF2084000F0F7
:100FF000F9FE99214DF2094000F0F4FE00214DF276
:101000000A4000F0EFFEBB214DF20B4000F0EAFE7B
:1010100000214DF20C4000F0E5FEDC214DF20D40C8
:1010200000F0E0FE01214DF20E4000F0DBFE042155
:101030004DF20F4000F0D6FE01214DF2104000F0BD
:10104000D1FE25214DF2114000F0CCFE01214DF2E0
:10105000124000F0C7FE59214DF2134000F0C2FECD
:1010600001214DF2144000F0BDFE82214DF21540E9
:1010700000F0B8FE01214DF2164000F0B3FEC6218B
:101080004DF2174000F0AEFE02214DF2184000F084
:10109000A9FE01214DF2194000F0A4FE02214DF2FB
:1010A0001A4000F09FFE02214DF21B4000F09AFE14
:1010B00002214DF21C4000F095FE39214DF21D40F9
:1010C00000F090FE02214DF21E4000F08BFE7921CF
:1010D0004DF21F4000F086FE02214DF2204000F04C
:1010E00081FEA1214DF2214000F07CFE02214DF253
:1010F000224000F077FED9214DF2234000F072FE2D
:1011000003214DF2244000F06DFE00214DF22540F8
:1011100000F068FE03214DF2264000F063FE382106
:101120004DF2274000F05EFE03214DF2284000F012
:1011300059FE67214DF2294000F054FE03214DF283
:101140002A4000F04FFE8F214DF22B4000F04AFE66
:1011500003214DF22C4000F045FECD214DF22D40F3
:1011600000F040FE03214DF22E4000F03BFEFD2139
:101170004DF22F4000F036FE03214DF2304000F0DA
:1011800031FEFE214DF2314000F02CFE03214DF2E4
:10119000324000F027FEFF214DF2334000F022FEE6
:1011A00000214FF4554000F01DFE05214DF2015085
:1011B00000F018FE00214DF2025000F013FE402115
:1011C0004DF2035000F00EFE00214DF2045000F0ED
:1011D00009FE6D214DF2055000F004FE00214DF294
:1011E000065000F0FFFD90214DF2075000F0FAFD8F
:1011F00000214DF2085000F0F5FD99214DF2095003
:1012000000F0F0FD00214DF20A5000F0EBFDBB2193
:101210004DF20B5000F0E6FD00214DF20C5000F0B5
:10122000E1FDDC214DF20D5000F0DCFD00214DF21E
:101230000E5000F0D7FD04214DF20F5000F0D2FD0A
:1012400001214DF2105000F0CDFD25214DF211503D
:1012500000F0C8FD01214DF2125000F0C3FD5921EC
:101260004DF2135000F0BEFD01214DF2145000F07C
:10127000B9FD82214DF2155000F0B4FD01214DF26F
:10128000165000F0AFFDC6214DF2175000F0AAFD38
:1012900002214DF2185000F0A5FD01214DF2195028
:1012A00000F0A0FD02214DF21A5000F09BFD02213A
:1012B0004DF21B5000F096FD02214DF21C5000F043
:1012C00091FD39214DF21D5000F08CFD02214DF2AF
:1012D0001E5000F087FD79214DF21F5000F082FD75
:1012E00002214DF2205000F07DFDA1214DF2215050
:1012F00000F078FD02214DF2225000F073FDD9215B
:101300004DF2235000F06EFD03214DF2245000F009
:1013100069FD00214DF2255000F064FD03214DF2DE
:10132000265000F05FFD38214DF2275000F05AFDA5
:1013300003214DF2285000F055FD67214DF2295050
:1013400000F050FD03214DF22A5000F04BFD8F219B
:101350004DF22B5000F046FD03214DF22C5000F0D1
:1013600041FDCD214DF22D5000F03CFD03214DF209
:101370002E5000F037FDFD214DF22F5000F032FDD0
:1013800003214DF2305000F02DFDFE214DF2315081
:1013900000F028FD03214DF2325000F023FDFF2123
:1013A0004DF2335000F01EFD00214FF4564000F086
:1013B00019FD05214DF2016000F014FD00214DF2F0
:1013C000026000F00FFD40214DF2036000F00AFDC5
:1013D00000214DF2046000F005FD6D214DF2056025
:1013E00000F000FD00214DF2066000F0FBFC9021B2
:1013F0004DF2076000F0F6FC00214DF2086000F0AD
:10140000F1FC99214DF2096000F0ECFC00214DF255
:101410000A6000F0E7FCBB214DF20B6000F0E2FC3B
:1014200000214DF20C6000F0DDFCDC214DF20D607E
:1014300000F0D8FC01214DF20E6000F0D3FC042135
:101440004DF20F6000F0CEFC01214DF2106000F073
:10145000C9FC25214DF2116000F0C4FC01214DF2C0
:10146000126000F0BFFC59214DF2136000F0BAFC8D
:1014700001214DF2146000F0B5FC82214DF215609F
:1014800000F0B0FC01214DF2166000F0ABFCC6216B
:101490004DF2176000F0A6FC02214DF2186000F03A
:1014A000A1FC01214DF2196000F09CFC02214DF2DB
:1014B0001A6000F097FC02214DF21B6000F092FCD4
:1014C00002214DF21C6000F08DFC39214DF21D60AF
:1014D00000F088FC02214DF21E6000F083FC7921AF
:1014E0004DF21F6000F07EFC02214DF2206000F002
:1014F00079FCA1214DF2216000F074FC02214DF233
:10150000226000F06FFCD9214DF2236000F06AFCEC
:1015100003214DF2246000F065FC00214DF22560AE
:1015200000F060FC03214DF2266000F05BFC3821E6
:101530004DF2276000F056FC03214DF2286000F0C8
:1015400051FC67214DF2296000F04CFC03214DF263
:101550002A6000F047FC8F214DF22B6000F042FC26
:1015600003214DF22C6000F03DFCCD214DF22D60A9
:1015700000F038FC03214DF22E6000F033FCFD2119
:101580004DF22F6000F02EFC03214DF2306000F090
:1015900029FCFE214DF2316000F024FC03214DF2C4
:1015A000326000F01FFCFF214DF2336000F01AFCA6
:1015B00055214FF4704000F015FCAA214FF20100B4
:1015C00000F010FC52214FF2020000F00BFC082149
:1015D0004FF2030000F006FC00214FF2040000F07F
:1015E00001FCCC214FF4314000F0FCFB00214BF218
:1015F000011000F0F7FB05214FF4364000F0F2FB3C
:1016000070214FF4374000F0EDFB70214BF2017078
:1016100000F0E8FB01214FF4384000F0E3FB052126
:101620004BF6010000F0DEFB05214BF6020000F056
:10163000D9FB05214BF6030000F0D4FB00214FF449
:101640003C4000F0CFFB00214BF6014000F0CAFB0C
:1016500000214BF6024000F0C5FBD0214FF4494079
:1016600000F0C0FB82214CF6011000F0BBFB5021C2
:101670004CF6021000F0B6FB50214CF6031000F0BF
:10168000B1FB50214CF6041000F0ACFB55214FF497
:10169000685000F0A7FB4FF4885000F09FFB04480F
:1016A000FEF7F4FD4FF4245000F098FB10BD00004D
:1016B000C0D401000FB583B0059800284FD106981B
:1016C000009003980A3080B20A2302903721049ACE
:1016D000FEF770FF0698009004980A3080B2372316
:1016E00002460A2102900398FEF764FF06980090D4
:1016F00004980A3080B202900398413080B23723B8
:1017000001900A21029AFEF755FF0698009004986E
:101710004B3080B2372302460A2102900398FEF72D
:1017200049FF0698009004984B3080B202900398CD
:10173000413080B2372301900A21029AFEF73AFF26
:10174000069800900498823080B2029003980A3084
:1017500080B20A2301903721029AFEF72BFF0598E9
:1017600001281DD10698009004980A3080B202909A
:101770000398413080B2372301900A21029AFEF784
:1017800019FF0698009004984B3080B2029003989D
:10179000413080B2372301900A21029AFEF70AFFF6
:1017A0000598022843D10698009003980A3080B229
:1017B0000A2302903721049AFEF7FCFE0698009057
:1017C00004980A3080B202900398413080B23723E7
:1017D00001900A21029AFEF7EDFE06980090049807
:1017E000413080B2029003980A3080B20A230190FF
:1017F0003721029AFEF7DEFE0698009004984B30DF
:1018000080B2372302460A2102900398FEF7D2FEE7
:10181000069800900498823080B2029003980A30B3
:1018200080B20A2301903721029AFEF7C3FE059881
:10183000032846D10698009003980A3080B20A2304
:1018400002903721049AFEF7B5FE0698009004989E
:101850000A3080B202900398413080B23723019061
:101860000A21029AFEF7A6FE0698009004984130DD
:1018700080B2029003980A3080B20A230190372187
:10188000029AFEF797FE0698009004984B3080B2BB
:1018900002900398413080B2372301900A21029AC6
:1018A000FEF788FE069800900498823080B202907D
:1018B00003980A3080B20A2301903721029AFEF77A
:1018C00079FE0598042838D10698009004980A30CB
:1018D00080B2372302460A2102900398FEF76AFE7F
:1018E0000698009004980A3080B202900398413024
:1018F00080B2372301900A21029AFEF75BFE069818
:1019000000900498413080B2029003980A3080B26F
:101910000A2301903721029AFEF74CFE06980090A8
:1019200004984B3080B202900398413080B2372344
:1019300001900A21029AFEF73DFE0598052843D141
:101940000698009003980A3080B20A23029037214B
:10195000049AFEF72FFE0698009004980A3080B291
:10196000372302460A2102900398FEF723FE0698C9
:1019700000900498413080B2029003980A3080B2FF
:101980000A2301903721029AFEF714FE0698009070
:1019900004984B3080B202900398413080B23723D4
:1019A00001900A21029AFEF705FE0698009004981D
:1019B000823080B2029003980A3080B20A230190EC
:1019C0003721029AFEF7F6FD059806284FD10698B2
:1019D000009003980A3080B20A2302903721049ABB
:1019E000FEF7E8FD0698009004980A3080B237238D
:1019F00002460A2102900398FEF7DCFD069800904B
:101A00000498413080B2029003980A3080B20A23D1
:101A100001903721029AFEF7CDFD069800900498B8
:101A20004B3080B2372302460A2102900398FEF71A
:101A3000C1FD0698009004984B3080B20290039844
:101A4000413080B2372301900A21029AFEF7B2FD9D
:101A5000069800900498823080B2029003980A3071
:101A600080B20A2301903721029AFEF7A3FD059860
:101A7000072828D10698009003980A3080B20A23DC
:101A800002903721049AFEF795FD0698009004987D
:101A90000A3080B202900398413080B2372301901F
:101AA0000A21029AFEF786FD0698009004984B30B2
:101AB00080B202900398413080B2372301900A210E
:101AC000029AFEF777FD059808285ED106980090E7
:101AD00003980A3080B20A2302903721049AFEF755
:101AE00069FD0698009004980A3080B237230246B8
:101AF0000A2102900398FEF75DFD06980090049875
:101B00000A3080B202900398413080B237230190AE
:101B10000A21029AFEF74EFD069800900498413083
:101B200080B2029003980A3080B20A2301903721D4
:101B3000029AFEF73FFD0698009004984B3080B261
:101B4000372302460A2102900398FEF733FD0698D8
:101B5000009004984B3080B202900398413080B2DC
:101B6000372301900A21029AFEF724FD069800907F
:101B70000498823080B2029003980A3080B20A231F
:101B800001903721029AFEF715FD0598092852D1D8
:101B90000698009003980A3080B20A2302903721F9
:101BA000049AFEF707FD0698009004980A3080B268
:101BB000372302460A2102900398FEF7FBFC0698A1
:101BC000009004980A3080B202900398413080B2AD
:101BD000372301900A21029AFEF7ECFC0698009048
:101BE0000498413080B2029003980A3080B20A23F0
:101BF00001903721029AFEF7DDFC069800900498C8
:101C00004B3080B202900398413080B2372301906C
:101C10000A21029AFEF7CEFC0698009004988230C2
:101C200080B2029003980A3080B20A2301903721D3
:101C3000029AFEF7BFFC07B000BD00002DE9F84F87
:101C400080460F4691469A460A9810233A46082144
:101C500000904046FEF7AEFC002428E0A9F12000E9
:101C6000154901EB001010F804B000251CE04BFAF8
:101C700005F000F00100B0B1264604EBD672521018
:101C8000A4EB420307F10802521B4FF0080C0CFBB7
:101C9000032291B204EBD47208EB620290B2524676
:101CA0000094FEF760FC6D1C082DE0DB641C102C1A
:101CB000D4DBBDE8F88F0000166200082DE9F04F74
:101CC00004460D4616469A46DDF8249018224FF039
:101CD0000C0B202E01DB7F2E01DDBDE8F08FA6F17D
:101CE0002000C6B24FF4285000F078F8201200F01F
:101CF00081F842F6012000F071F8E0B200F07AF8C5
:101D000042F6022000F06AF80BEB0401491EC1F311
:101D10000F2000F06FF842F6032000F05FF80BEBA5
:101D20000401491EC8B200F065F84FF42C5000F0D1
:101D300055F8281200F05EF842F6013000F04EF837
:101D4000E8B200F057F842F6023000F047F85119B7
:101D5000491EC1F30F2000F04DF842F6033000F0A9
:101D60003DF85119491EC8B200F044F84FF4305004
:101D700000F034F8002327E000271EE04FF00008B1
:101D800017E006EBC600144901EB800008EB4801A0
:101D90001944405CB84000F0800018B1504600F093
:101DA00029F802E0484600F025F808F1010000F0AB
:101DB000FF08D845E5DB781CC7B2032092FBF0F0A2
:101DC000B842DBDC581CC3B2D11702EB5171B3EB44
:101DD000E10FD1DB00BF80E7066800084FF0D84173
:101DE000088070474FF0D8421080014A1180704738
:101DF0000008006C01490880704700000008006C72
:101E00000D4AD26942F001020B4BDA619A049085C7
:101E10001185928942F001029B049A811A46128828
:101E200042F001021A804523044A13704FF0805299
:101E3000034B1A6070470000001002401CE400E0F1
:101E400000E100E0104AD26942F004020E4BDA6170
:101E50000E4A1080121F11800C4A203A128842F05C
:101E600001020A4B203B1A80084A2C3A128842F0A1
:101E70000102064B2C3B1A804523054A13709A0732
:101E8000044B1A6070470000001002402C0800400C
:101E90001EE400E000E100E0104AD26942F00802CE
:101EA0000E4BDA610E4A1080121F11800C4A203A44
:101EB000128842F001020A4B203B1A80084A2C3A51
:101EC000128842F00102064B2C3B1A804523054A3A
:101ED00013704FF48022044B1A60704700100240C8
:101EE0002C0C004012E400E004E100E095210548DC
:101EF00001700548006840F020004FF0E021C1F873
:101F00000401704725E400E004E100E02DE9F05F02
:101F100005460E46300103F0E5FD8146274905FBE5
:101F200001F003F0DFFD8246494603F0F9FC074665
:101F3000384603F0B7FD84B2204603F0D3FD834654
:101F4000394603F0AFFE82464FF0834103F0DEFDD9
:101F5000814603F0A7FD80464FF6FF7000EA0414A7
:101F600004EB080084B21648806940F0040014496C
:101F700088610846806940F48040886111480068A3
:101F800020F47F600F4908600846006840F40B6049
:101F900008600B48C06840F480400949C8600846A2
:101FA000C06820F48040C8600748048042F22C00DA
:101FB0000549091D0880BDE8F09F000040420F0060
:101FC00000100240040801400838014038B501F013
:101FD0009FFD0446D748006800287DD1D648006898
:101FE00000287AD1D54900900988283988B20F2372
:101FF00000225021FEF7DEFAC4F38010CF490968B1
:10200000282901D3012100E000210840F0B14FF65A
:10201000FF70CA4900900988283988B20F2300222E
:102020005021FEF7C7FAC5480068801FC349086001
:10203000002000900988283988B20F2300225021FF
:10204000FEF7B8FA42F21070FEF720F9012080EA9C
:10205000D41080F00100B9490968B1F5DC7F01D8DE
:10206000012100E000210840F0B14FF6FF70B349B4
:1020700000900988283988B20F2300225021FEF7EA
:1020800099FAAE480068801DAC49086000200090B5
:102090000988283988B20F2300225021FEF78AFAD6
:1020A00042F21070FEF7F2F80020A549009009886E
:1020B000283988B20F2340F211325021FEF77AFA04
:1020C000A0480068C0F3800080F001009C490968C6
:1020D000282903D3012102E0D4E054E00021084084
:1020E00000B34FF6FF70964900900988283988B2EE
:1020F0000F2340F211325021FEF75CFA904800683D
:10210000001F8F490860002000900988283988B294
:102110000F2340F211325021FEF74CFA42F21070B8
:10212000FEF7B4F887480068C0F3001080F00100A3
:1021300083490968B1F5DC7F01D8012100E0002165
:10214000084000B34FF6FF707D4900900988283998
:1021500088B20F2340F211325021FEF72BFA784853
:102160000068001D76490860002000900988283921
:1021700088B20F2340F211325021FEF71BFA42F2CF
:102180001070FEF783F86C48006801287AD10020AF
:102190006A4900900988193988B20F230022322138
:1021A000FEF708FAC4F3801064490968192901D3BD
:1021B000012100E000210840F0B14FF6FF705F49B7
:1021C00000900988193988B20F2300223221FEF7C6
:1021D000F1F95A480068801F5849086000200090B3
:1021E0000988193988B20F2300223221FEF7E2F95B
:1021F00042F21070FEF74AF8012080EAD41080F015
:1022000001004E490968B1F5E47F01D2012100E0E7
:1022100000210840F0B14FF6FF704849009009884E
:10222000193988B20F2300223221FEF7C3F943483F
:102230000068801D41490860002000900988193914
:1022400088B20F2300223221FEF7B4F942F2107057
:10225000FEF71CF800203A4900900988193988B225
:102260000F2340F211323221FEF7A4F935480068FD
:10227000C0F3800080F0010031490968192902D3B8
:10228000012101E054E00021084000B34FF6FF7047
:102290002B4900900988193988B20F2340F2113276
:1022A0003221FEF787F926480068001F244908609C
:1022B000002000900988193988B20F2340F21132AA
:1022C0003221FEF777F942F21070FDF7DFFF1D486B
:1022D0000068C0F3001080F0010019490968B1F5E9
:1022E000E47F01D2012100E00021084000B34FF655
:1022F000FF70134900900988193988B20F2340F202
:1023000011323221FEF756F90D480068001D0C49C4
:102310000860002000900988193988B20F2340F224
:1023200011323221FEF746F942F21070FDF7AEFF8E
:1023300038BD0000480000200000002008000020F8
:10234000040000200818014008B5FE4800680F2866
:1023500002D80120FC490860FA480068B0F5E87F1F
:1023600002D90020F8490860F84800681E2802D801
:102370000120F7490860F548006840F202318842C0
:1023800002D30020F2490860EE480068F14909686C
:10239000401A4043ED490968EF4A1268891AEB4A2E
:1023A0001268ED4B1B68D21A01FB0200E12819D814
:1023B000E5480068012802D10020E3490860E248AE
:1023C000006810B90120E0490860E1480068012870
:1023D00002D10020DE490860DD48006810B9012004
:1023E000DB490860D7480068DC490968401A404367
:1023F000D6490968DA4A1268891AD44A1268D84B51
:102400001B68D21A01FB0200E12819D8CE480068E7
:10241000012802D10020CC490860CB48006810B9DF
:102420000120C9490860CA480068012802D100207B
:10243000C7490860C648006810B90120C44908604F
:10244000C848006800287DD1C7480068D8BB4FF64F
:10245000FF70BE4A0090128891B2BA4A128890B2B8
:1024600001230F22FDF7D0FFB7480068012804D1EF
:10247000B4480068401CB3490860B348006820B9FC
:10248000B0480068401EAF490860B14800680128A4
:1024900004D1AE480068801CAC490860AC480068B4
:1024A00020B9AA480068801EA84908604FF4784007
:1024B000A64A0090128891B2A24A128890B20123D3
:1024C0000F22FDF7A1FFA848006801283DD14FF673
:1024D000FF709E4A0090128891B29A4A128890B278
:1024E00001230F22FDF790FF97480068012804D1CF
:1024F00094480068801C934908609348006820B99C
:1025000090480068801E8F49086091480068012843
:1025100004D18E480068801C8C4908608C48006893
:1025200020B98A480068801E884908604FF47840C6
:10253000864A0090128891B2824A128890B2012392
:102540000F2200E096E1FDF75FFF87480068022850
:102550003BD14FF6FF707D4A0090128891B2794AC4
:10256000128890B201230F22FDF74EFF76480068D3
:10257000012804D173480068C01C72490860724881
:10258000006820B96F480068C01E6E490860704836
:102590000068012804D16D480068801C6B49086000
:1025A0006B48006820B969480068801E6749086068
:1025B0004FF47840654A0090128891B2614A1288BF
:1025C00090B201230F22FDF71FFF67480068032820
:1025D0003BD14FF6FF705D4A0090128891B2594A84
:1025E000128890B201230F22FDF70EFF56480068B3
:1025F000012804D153480068001D52490860524820
:10260000006820B94F480068001F4E4908605048D4
:102610000068012804D14D480068801C4B490860BF
:102620004B48006820B949480068801E4749086047
:102630004FF47840454A0090128891B2414A12887E
:1026400090B201230F22FDF7DFFE474800680428FF
:102650003BD14FF6FF703D4A0090128891B2394A43
:10266000128890B201230F22FDF7CEFE3648006893
:10267000012804D133480068401D324908603248BF
:10268000006820B92F480068401F2E490860304874
:102690000068012804D12D480068801C2B4908607F
:1026A0002B48006820B929480068801E2749086027
:1026B0004FF47840254A0090128891B2214A12883E
:1026C00090B201230F22FDF79FFE274800680528DE
:1026D00050D14FF6FF701D4A0090128891B2194AEE
:1026E000128890B201230F22FDF78EFE1648006873
:1026F000012804D113480068801D1249086012485F
:10270000006820B90F480068801F0E490860104813
:102710000068012804D10D480068801C0B4908603E
:102720000B48006820B909480068801E0749086006
:102730004FF47840054A0090128891B2014A1288FD
:1027400090B213E00C0000202400002010000020B4
:102750002800002014000020180000201C00002089
:1027600020000020480000203C00002001230F2210
:10277000FDF74AFEA448006806283BD14FF6FF70DB
:10278000A24A0090128891B2A14A128890B2012305
:102790000F22FDF739FE9F480068012804D19C48AC
:1027A0000068C01D9A4908609A48006820B9984896
:1027B0000068C01F9649086097480068012804D146
:1027C00092480068801C914908609348006820B9CD
:1027D0008E480068801E8D4908604FF478408B4A0F
:1027E0000090128891B28A4A128890B201230F2277
:1027F000FDF70AFE8448006807283BD14FF6FF70BA
:10280000824A0090128891B2814A128890B20123C4
:102810000F22FDF7F9FD7F480068012804D17C48AC
:10282000006808307A4908607A48006820B978481A
:10283000006808387649086077480068012804D1A4
:1028400072480068801C714908607348006820B9AC
:102850006E480068801E6D4908604FF478406B4AEE
:102860000090128891B26A4A128890B201230F2216
:10287000FDF7CAFD69480068A8BB694800682838A8
:1028800063490968884201D9012000E000206049BD
:102890000A686349096828318A4201D9012100E0A8
:1028A00000210843594909681E2901D8012100E087
:1028B0000021084020B100F09DFF642053490860CA
:1028C00058480068283852490968884201D90120CF
:1028D00000E000204E490A685249096828318A42BE
:1028E00002D9012101E011E00021084347490968AC
:1028F00040F20232914201D3012100E00021084060
:1029000020B100F077FF6420404908604348006828
:10291000012847D14248006819383D490968884272
:1029200001D9012000E0002039490A683C490968C2
:1029300019318A4201D9012100E0002108433349BD
:1029400009681E2901D8012100E00021084020B1BA
:1029500000F050FF64202D490860324800681938A3
:102960002B490968884201D9012000E0002028494C
:102970000A682C49096819318A4201D9012100E00D
:10298000002108432149096840F20232914201D3F3
:10299000012100E00021084020B100F02BFF64205D
:1029A0001A4908601A4800680F2801D8012000E081
:1029B000002017490968B1F5E87F01D9012100E03D
:1029C00000210843114909681E2901D8012100E0AE
:1029D000002108430D49096840F20232914201D3B7
:1029E000012100E00021084360B14FF480700E49DE
:1029F000086042F21070FDF749FC4FF480700A49FC
:102A0000091D086008BD00003C00002010000020E7
:102A10000C000020240000202800002000000020DE
:102A20000800002004000020100C014008B5FE48FA
:102A300000680F2802D80120FC490860FA480068A5
:102A4000B0F5E87F02D90020F8490860F84800682E
:102A50001E2802D80120F7490860F548006840F2B6
:102A60000231884202D30020F2490860F24800682F
:102A7000ED490968401A4043F0490968EC4A126878
:102A8000891AEE4A1268EA4B1B68D21A01FB02004F
:102A9000E12819D8E5480068012802D10020E3495F
:102AA0000860E248006810B90120E0490860E14888
:102AB0000068012802D10020DE490860DD48006876
:102AC00010B90120DB490860DD480068D649096873
:102AD000401A4043DB490968D54A1268891AD94A25
:102AE0001268D34B1B68D21A01FB0200E12819D8E7
:102AF000CE480068012802D10020CC490860CB48AC
:102B0000006810B90120C9490860CA480068012856
:102B100002D10020C7490860C648006810B90120EA
:102B2000C4490860C848006800287DD1C7480068CB
:102B300004283BD14FF6FF70BD4A0090128891B235
:102B4000B94A128890B201230F22FDF75DFCB74805
:102B50000068012804D1B4480068401CB2490860EC
:102B6000B248006820B9B0480068401EAE4908600D
:102B7000B0480068012804D1AD480068801CAC4909
:102B80000860AC48006820B9A9480068801EA849C0
:102B900008604FF47840A64A0090128891B2A24A89
:102BA000128890B201230F22FDF72EFCA74800687F
:102BB00005283DD14FF6FF709D4A0090128891B2D2
:102BC000994A128890B201230F22FDF71DFC974805
:102BD0000068012804D194480068801C924908606C
:102BE0009248006820B990480068801E8E490860AD
:102BF00090480068012804D18D480068801C8C49E9
:102C000008608C48006820B989480068801E88499F
:102C100008604FF47840864A0090128891B2824A48
:102C2000128890B2012300E096E10F22FDF7ECFB41
:102C30008648006806283BD14FF6FF707C4A00901A
:102C4000128891B2784A128890B201230F22FDF7C0
:102C5000DBFB76480068012804D173480068C01C7B
:102C6000714908607148006820B96F480068C01E4B
:102C70006D4908606F480068012804D16C480068FD
:102C8000801C6B4908606B48006820B96848006880
:102C9000801E674908604FF47840654A00901288AA
:102CA00091B2614A128890B201230F22FDF7ACFB6A
:102CB0006648006807283BD14FF6FF705C4A0090D9
:102CC000128891B2584A128890B201230F22FDF760
:102CD0009BFB56480068012804D153480068001D3A
:102CE000514908605148006820B94F480068001FEA
:102CF0004D4908604F480068012804D14C480068DD
:102D0000801C4B4908604B48006820B9484800685F
:102D1000801E474908604FF47840454A0090128869
:102D200091B2414A128890B201230F22FDF76CFB49
:102D300046480068D8BB4FF6FF703D4A00901288A5
:102D400091B2394A128890B201230F22FDF75CFB41
:102D500036480068012804D133480068401D3249D4
:102D600008603248006820B92F480068401F2E498B
:102D7000086030480068012804D12D480068801C94
:102D80002B4908602B48006820B929480068801E3C
:102D9000274908604FF47840254A0090128891B284
:102DA000214A128890B201230F22FDF72DFB2748FC
:102DB0000068012850D14FF6FF701D4A009012881C
:102DC00091B2194A128890B201230F22FDF71CFB21
:102DD00016480068012804D113480068801D124974
:102DE00008601248006820B90F480068801F0E492B
:102DF000086010480068012804D10D480068801C54
:102E00000B4908600B48006820B909480068801E1B
:102E1000074908604FF47840054A0090128891B243
:102E2000014A128890B213E0140000202C00002008
:102E300018000020300000200C00002010000020AE
:102E40001C00002020000020480000203C00002042
:102E500001230F22FDF7D8FAA448006802283BD1CD
:102E60004FF6FF70A24A0090128891B2A14A1288D0
:102E700090B201230F22FDF7C7FA9F48006801288E
:102E800004D19C480068C01D9A4908609A480068AF
:102E900020B998480068C01F9649086097480068A4
:102EA000012804D192480068801C91490860934829
:102EB000006820B98E480068801E8D4908604FF474
:102EC00078408B4A0090128891B28A4A128890B258
:102ED00001230F22FDF798FA8448006803283BD1AC
:102EE0004FF6FF70824A0090128891B2814A128890
:102EF00090B201230F22FDF787FA7F48006801286E
:102F000004D17C48006808307A4908607A48006833
:102F100020B9784800680838764908607748006822
:102F2000012804D172480068801C71490860734808
:102F3000006820B96E480068801E6D4908604FF433
:102F400078406B4A0090128891B26A4A128890B217
:102F500001230F22FDF758FA69480068A8BB6948A9
:102F60000068283863490968884201D9012000E0D7
:102F7000002060490A686349096828318A4201D9FA
:102F8000012100E000210843594909681E2901D8A0
:102F9000012100E00021084020B100F02BFC64205A
:102FA00053490860584800682838524909688842DF
:102FB00001D9012000E000204E490A685249096801
:102FC00028318A4202D9012101E011E000210843A1
:102FD0004749096840F20232914201D3012100E0E1
:102FE0000021084020B100F005FC64204049086041
:102FF00043480068012847D14248006819383D49D4
:103000000968884201D9012000E0002039490A6896
:103010003C49096819318A4201D9012100E00021A7
:103020000843334909681E2901D8012100E0002125
:10303000084020B100F0DEFB64202D4908603248D2
:10304000006819382B490968884201D9012000E03D
:10305000002028490A682C49096819318A4201D997
:10306000012100E0002108432149096840F20232B1
:10307000914201D3012100E00021084020B100F07D
:10308000B9FB64201A4908601A4800680F2801D863
:10309000012000E0002017490968B1F5E87F01D957
:1030A000012100E000210843114909681E2901D8C7
:1030B000012100E0002108430D49096840F2023275
:1030C000914201D3012100E00021084360B14FF497
:1030D00080700E49086042F21070FDF7D7F84FF487
:1030E00080700A49091D086008BD00003C000020EE
:1030F00018000020140000202C00002030000020C8
:10310000000000200800002004000020100C0140F6
:1031100008B5FE4800680F2802D80120FC49086065
:10312000FA480068B0F5E87F02D90020F849086045
:10313000F84800681E2802D80120F7490860F548C1
:10314000006840F20231884202D30020F249086050
:10315000EE480068F1490968401A4043ED490968A2
:10316000EF4A1268891AEB4A1268ED4B1B68D21AB3
:1031700001FB0200E12819D8E5480068012802D1C6
:103180000020E3490860E248006810B90120E049E6
:103190000860E1480068012802D10020DE4908608B
:1031A000DD48006810B90120DB490860D748006895
:1031B000DC490968401A4043D6490968DA4A12686E
:1031C000891AD44A1268D84B1B68D21A01FB020034
:1031D000E12819D8CE480068012802D10020CC4946
:1031E0000860CB48006810B90120C9490860CA4886
:1031F0000068012802D10020C7490860C64800685D
:1032000010B90120C4490860C848006800287DD171
:10321000C748006802283BD14FF6FF70BD4A0090B6
:10322000128891B2B94A128890B201230F22FDF799
:10323000EBF8B7480068012804D1B4480068401C86
:10324000B2490860B248006820B9B0480068401E22
:10325000AE490860B0480068012804D1AD48006854
:10326000801CAC490860AC48006820B9A9480068D7
:10327000801EA84908604FF47840A64A0090128842
:1032800091B2A24A128890B201230F22FDF7BCF836
:10329000A748006803283DD14FF6FF709D4A009073
:1032A000128891B2994A128890B201230F22FDF739
:1032B000ABF897480068012804D194480068801C46
:1032C000924908609248006820B990480068801EC2
:1032D0008E49086090480068012804D18D48006834
:1032E000801C8C4908608C48006820B989480068B7
:1032F000801E884908604FF47840864A0090128802
:1033000091B2824A128890B2012300E096E10F2226
:10331000FDF77AF88648006804283BD14FF6FF7025
:103320007C4A0090128891B2784A128890B20123A8
:103330000F22FDF769F876480068012804D1734828
:103340000068C01C714908607148006820B96F4866
:103350000068C01E6D4908606F480068012804D1EC
:103360006C480068801C6B4908606B48006820B995
:1033700068480068801E674908604FF47840654AD5
:103380000090128891B2614A128890B201230F22F4
:10339000FDF73AF86648006805283BD14FF6FF7004
:1033A0005C4A0090128891B2584A128890B2012368
:1033B0000F22FDF729F856480068012804D1534828
:1033C0000068001D514908605148006820B94F4805
:1033D0000068001F4D4908604F480068012804D16B
:1033E0004C480068801C4B4908604B48006820B975
:1033F00048480068801E474908604FF47840454AB5
:103400000090128891B2414A128890B201230F2293
:10341000FCF7FAFF4648006806283BD14FF6FF70DC
:103420003C4A0090128891B2384A128890B2012327
:103430000F22FCF7E9FF36480068012804D1334821
:103440000068401D314908603148006820B92F48A4
:103450000068401F2D4908602F480068012804D1EA
:103460002C480068801C2B4908602B48006820B954
:1034700028480068801E274908604FF47840254A94
:103480000090128891B2214A128890B201230F2233
:10349000FCF7BAFF26480068072850D14FF6FF70A6
:1034A0001C4A0090128891B2184A128890B20123E7
:1034B0000F22FCF7A9FF16480068012804D1134821
:1034C0000068801D114908601148006820B90F4844
:1034D0000068801F0D4908600F480068012804D16A
:1034E0000C480068801C0B4908600B48006820B934
:1034F00008480068801E074908604FF47840054A74
:103500000090128891B2014A128813E01C0000203A
:10351000340000202000002038000020140000208B
:10352000180000200C00002010000020480000209F
:103530003C00002090B201230F22FCF765FFA44855
:103540000068D8BB4FF6FF70A24A0090128891B273
:10355000A14A128890B201230F22FCF755FF9F4821
:103560000068012804D19C480068C01D9A49086081
:103570009A48006820B998480068C01F96490860BA
:1035800097480068012804D192480068801C91493E
:1035900008609348006820B98E480068801E8D49F5
:1035A00008604FF478408B4A0090128891B28A4AA2
:1035B000128890B201230F22FCF726FF844800688E
:1035C00001283BD14FF6FF70824A0090128891B2D9
:1035D000814A128890B201230F22FCF715FF7F4821
:1035E0000068012804D17C48006808307A490860E6
:1035F0007A48006820B97848006808387649086039
:1036000077480068012804D172480068801C71491D
:1036100008607348006820B96E480068801E6D49D4
:1036200008604FF478406B4A0090128891B26A4A61
:10363000128890B201230F22FCF7E6FE6948006869
:10364000A8BB69480068283863490968884201D9DD
:10365000012000E0002060490A68634909682831B8
:103660008A4201D9012100E0002108435949096833
:103670001E2901D8012100E00021084020B100F0FE
:10368000B9F86420534908605848006828385249FE
:103690000968884201D9012000E000204E490A68EB
:1036A0005249096828318A4202D9012101E011E01A
:1036B000002108434749096840F20232914201D390
:1036C000012100E00021084020B100F093F86420BF
:1036D0004049086043480068012847D142480068D3
:1036E00019383D490968884201D9012000E00020CD
:1036F00039490A683C49096819318A4201D90121CE
:1037000000E000210843334909681E2901D801213E
:1037100000E00021084020B100F06CF864202D4941
:1037200008603248006819382B490968884201D975
:10373000012000E0002028490A682C490968193155
:103740008A4201D9012100E000210843214909688A
:1037500040F20232914201D3012100E000210840F1
:1037600020B100F047F864201A4908601A48006840
:103770000F2801D8012000E0002017490968B1F5A1
:10378000E87F01D9012100E00021084311490968BF
:103790001E2901D8012100E0002108430D490968D4
:1037A00040F20232914201D3012100E0002108439E
:1037B00060B14FF480700E49086042F21070FCF75F
:1037C00065FD4FF480700A49091D086008BD0000BE
:1037D0003C000020200000201C00002034000020BD
:1037E0003800002000000020080000200400002015
:1037F000100C014008B56420A3490860A348FCF7F9
:1038000045FD00204FF4487302464FF4F0710090DC
:10381000FCF7D0FE00204FF4784347224FF4967116
:103820000090BA20FEF74AFA00204FF47843412274
:103830004FF496710090C620FEF740FA00204FF436
:1038400078434D224FF496710090D220FEF736FA5D
:1038500000204FF4784345224FF496710090DE200B
:10386000FEF72CFA00204FF4784320224FF4967193
:103870000090EA20FEF722FA00204FF478434F220E
:103880004FF496710090F620FEF718FA00204FF4DE
:10389000784356224FF4967100904FF48170FEF7F2
:1038A0000DFA00204FF4784345224FF496710090B2
:1038B0004FF48770FEF702FA00204FF4784352224B
:1038C0004FF4967100904FF48D70FEF7F7F90020D9
:1038D0004FF4784350224FF4C87100909620FEF7C1
:1038E000EDF900204FF478436C224FF4C87100903A
:1038F000A220FEF7E3F900204FF4784361224FF451
:10390000C8710090AE20FEF7D9F900204FF478433B
:1039100079224FF4C8710090BA20FEF7CFF9002049
:103920004FF4784365224FF4C8710090C620FEF72B
:10393000C5F900204FF4784372224FF4C87100900B
:10394000D220FEF7BBF900204FF4784320224FF439
:10395000C8710090DE20FEF7B1F900204FF47843E3
:1039600020224FF4C8710090F620FEF7A7F900203E
:103970004FF478436C224FF4C87100904FF481707B
:10398000FEF79CF900204FF478436F224FF4C87182
:1039900000904FF48770FEF791F900204FF47843C0
:1039A00073224FF4C87100904FF48D70FEF786F9C2
:1039B00000204FF4784365224FF4C87100904FF413
:1039C0009370FEF77BF900204FF4784373224FF495
:1039D000C87100904FF49970FEF770F900204FF411
:1039E000784321224FF4C87100904FF49F70FEF786
:1039F00065F92748006840F20231884201D8012069
:103A000000E000202349096840F20232914201D8C7
:103A1000012100E0002108431F49096840F20232F9
:103A2000914201D8012100E00021084348B1002063
:103A30004FF4784341224FF4C8710090EA20FEF71A
:103A40003DF9134800681E2801D8012000E000203D
:103A5000104909681E2901D8012100E0002108430E
:103A60000D4909681E2901D8012100E00021084301
:103A700048B100204FF4784342224FF4C8710090BF
:103A8000EA20FEF71BF908BD4800002040420F0065
:103A900010000020180000202000002000BFFEE7DA
:103AA0001848806940F00800164988610846806916
:103AB00040F0200088611448006820F47F401249DB
:103AC00008600846006840F4605008600E480830FE
:103AD000006840F440600C49083108600B480068F9
:103AE00020F47040094908600846006840F44050DE
:103AF000086006480C30006840F0080003490C31AB
:103B00000860704700100240040C0140001401409E
:103B100008B5002000901C48006840F400601A4975
:103B200008605020FCF7B2FB1748006840F00060C6
:103B300015490860002322E09DF800004010009025
:103B4000114808380068C0F3802020B99DF80000B3
:103B500040F0800000900D48006840F008000B49DC
:103B600008605020FCF792FB0848006840F40020F1
:103B7000064908605020FCF789FB581CC3B2082B8B
:103B8000DADB9DF8000008BD100C01401014014064
:103B900000BFFEE770477047704710B500F002F8AD
:103BA00010BD00000CB50020019000903348006863
:103BB00040F480303149086000BF3048006800F4AC
:103BC000003000900198401C0190009818B90198AD
:103BD000B0F5A06FF1D12948006800F4003010B1B1
:103BE0000120009001E0002000900098012843D1BE
:103BF0002348006840F0100021490860084600682A
:103C000020F0030008600846006840F002000860E9
:103C10001A484068194948600846406848600846A4
:103C2000406840F4806048600846406820F47C109A
:103C300048600846406840F4E8104860084600685C
:103C400040F08070086000BF0C48006800F0007011
:103C50000028F9D00948406820F00300074948606F
:103C60000846406840F00200486000BF03484068D2
:103C700000F00C000828F9D10CBD00000010024033
:103C80000020024008B51F204FF6FF735722642121
:103C900000900846FEF712F81F204FF6FF736522CA
:103CA000642100907020FEF709F81F204FF6FF7383
:103CB0006C22642100907C20FEF700F81F204FF654
:103CC000FF736322642100908820FDF7F7FF1F2017
:103CD0004FF6FF736F22642100909420FDF7EEFFF2
:103CE0001F204FF6FF736D2264210090A020FDF786
:103CF000E5FF1F204FF6FF73652264210090AC2082
:103D0000FDF7DCFF1F204FF6FF7320226421009097
:103D1000B820FDF7D3FF1F204FF6FF7374226421F4
:103D20000090C420FDF7CAFF1F204FF6FF736F22DB
:103D300064210090D020FDF7C1FF1F204FF6FF73D4
:103D4000202264210090DC20FDF7B8FF1F204FF6F1
:103D5000FF736D2264210090E820FDF7AFFF1F2064
:103D60004FF6FF73692264210090F420FDF7A6FF4F
:103D70001F204FF6FF736E22642100904FF4807075
:103D8000FDF79CFF1F204FF6FF736922642100900E
:103D90004FF48670FDF792FF1F204FF6FF7320222D
:103DA000642100904FF48C70FDF788FF1F204FF6C0
:103DB000FF735022642100904FF49270FDF77EFF54
:103DC0001F204FF6FF737222642100904FF4987009
:103DD000FDF774FF1F204FF6FF736F2264210090E0
:103DE0004FF49E70FDF76AFF1F204FF6FF736A22A3
:103DF000642100904FF4A470FDF760FF1F204FF680
:103E0000FF736522642100904FF4AA70FDF756FFFE
:103E10001F204FF6FF736322642100904FF4B070AF
:103E2000FDF74CFF1F204FF6FF73742264210090B2
:103E30004FF4B670FDF742FF1F204FF6FF732122AB
:103E4000642100904FF4BC70FDF738FFFE48FCF78A
:103E50001DFA4FF478404FF6FF735422B4210090BE
:103E60006420FDF7EBFE4FF478404FF6FF736822B5
:103E7000B42100906C20FDF7E1FE4FF478404FF63E
:103E8000FF736922B42100907420FDF7D7FE4FF430
:103E900078404FF6FF737322B42100907C20FDF729
:103EA000CDFE4FF478404FF6FF732022B4210090EE
:103EB0008420FDF7C3FE4FF478404FF6FF7369226C
:103EC000B42100908C20FDF7B9FE4FF478404FF6F6
:103ED000FF737322B42100909420FDF7AFFE4FF4DE
:103EE00078404FF6FF732022B42100909C20FDF70C
:103EF000A5FE4FF478404FF6FF737422B421009072
:103F0000A420FDF79BFE4FF478404FF6FF73682224
:103F1000B4210090AC20FDF791FE4FF478404FF6AD
:103F2000FF736522B42100900846FDF787FE4FF429
:103F300078404FF6FF732022B4210090BC20FDF79B
:103F40007DFE4FF478404FF6FF734622B421009077
:103F5000C420FDF773FE4FF478404FF6FF736922DB
:103F6000B4210090CC20FDF769FE4FF478404FF665
:103F7000FF736E22B4210090D420FDF75FFE4FF452
:103F800078404FF6FF736122B4210090DC20FDF7EA
:103F900055FE4FF478404FF6FF736C22B421009029
:103FA000E420FDF74BFE4FF478404FF6FF732022DC
:103FB000B4210090EC20FDF741FE4FF478404FF61D
:103FC000FF734C22B4210090F420FDF737FE4FF42C
:103FD00078404FF6FF736122B4210090FC20FDF77A
:103FE0002DFE4FF478404FF6FF736222B42100900B
:103FF0004FF48270FDF722FE4FF478404FF6FF73C6
:104000002E22B42100904FF48670FDF717FE8E48E3
:10401000FCF73CF94FF478404FF6FF734122F02152
:1040200000906420FDF70AFE4FF478404FF6FF73CE
:104030007222F02100906C20FDF700FE4FF47840D2
:104040004FF6FF736522F02100907420FDF7F6FD16
:104050004FF478404FF6FF732022F02100907C202F
:10406000FDF7ECFD4FF478404FF6FF737922F02115
:1040700000908420FDF7E2FD4FF478404FF6FF7387
:104080006F22F02100908C20FDF7D8FD4FF478408E
:104090004FF6FF737522F02100909420FDF7CEFDBE
:1040A0004FF478404FF6FF732022F02100909C20BF
:1040B000FDF7C4FD4FF478404FF6FF737222F021F4
:1040C0000090A420FDF7BAFD4FF478404FF6FF733F
:1040D0006522F0210090AC20FDF7B0FD4FF4784050
:1040E0004FF6FF736122F0210090B420FDF7A6FD8A
:1040F0004FF478404FF6FF736422F0210090BC200B
:10410000FDF79CFD4FF478404FF6FF737922F021C4
:104110000090C420FDF792FD4FF478404FF6FF73F6
:104120003F22F0210090CC20FDF788FD4648FCF7A7
:10413000ADF84FF478404FF6FF734F224FF496716D
:1041400000906420FDF77AFD4FF478404FF6FF733E
:104150004B22910000906C20FDF770FD4FF47840E9
:104160004FF6FF7321224FF4967100907420FDF7F3
:1041700065FD4FF478404FF6FF7320224FF496719F
:1041800000907C20FDF75AFD4FF478404FF6FF7306
:104190004C224FF4967100908420FDF74FFD4FF4B0
:1041A00078404FF6FF7365224FF4967100908C2093
:1041B000FDF744FD4FF478404FF6FF7374224FF43F
:1041C000967100909420FDF739FD4FF478404FF63A
:1041D000FF7327224FF4967100909C20FDF72EFD6F
:1041E0004FF478404FF6FF7373224FF496710090AE
:1041F000A420FDF723FD4FF478404FF6FF732022F3
:104200004FF496710090AC20FDF718FD4FF4784004
:104210004FF6FF7373224FF496710090B420FDF7B0
:104220000DFD4FF478404FF6FF7374224FF49671F2
:104230000090BC20FDF702FD4FF478404FF6FF736D
:1042400061224FF4967101E0809698000090C4209E
:10425000FDF7F4FC4FF478404FF6FF7372224FF4F1
:1042600096710090CC20FDF7E9FC4FF478404FF6B2
:10427000FF7374224FF496710090D420FDF7DEFC9A
:104280004FF478404FF6FF732E224FF49671009052
:10429000DC20FDF7D3FCFE48FBF7F8FF4FF6FF707C
:1042A0004FF4487300224FF4F07100901046FCF771
:1042B00081F94FF478404FF6FF7350224FF4967116
:1042C00000906420FDF7BAFC4FF478404FF6FF737E
:1042D0006C224FF4967100901046FDF7AFFC4FF43E
:1042E00078404FF6FF7365224FF49671009074206A
:1042F000FDF7A4FC4FF478404FF6FF7361224FF4B2
:10430000967100907C20FDF799FC4FF478404FF6B1
:10431000FF7373224FF4967100908420FDF78EFC9A
:104320004FF478404FF6FF7365224FF4967100907A
:104330008C20FDF783FC4FF478404FF6FF7320226A
:104340004FF4967100909420FDF778FC4FF478407C
:104350004FF6FF7373224FF4967100909C20FDF787
:104360006DFC4FF478404FF6FF7365224FF4967161
:104370000090A420FDF762FC4FF478404FF6FF73E5
:104380006C224FF496710090AC20FDF757FC4FF46F
:1043900078404FF6FF7365224FF496710090B42079
:1043A000FDF74CFC4FF478404FF6FF7363224FF457
:1043B00096710090BC20FDF741FC4FF478404FF619
:1043C000FF7374224FF496710090C420FDF736FC01
:1043D0004FF478404FF6FF7320224FF4967100900F
:1043E000CC20FDF72BFC4FF478404FF6FF7374227E
:1043F0004FF496710090D420FDF720FC4FF47840E4
:104400004FF6FF7368224FF496710090DC20FDF7A1
:1044100015FC4FF478404FF6FF7365224FF4967108
:104420000090E420FDF70AFC4FF478404FF6FF734C
:1044300020224FF496710090EC20FDF7FFFB4FF423
:1044400078404FF6FF7364224FF496710090F42089
:10445000FDF7F4FB4FF478404FF6FF7369224FF4F9
:1044600096710090FC20FDF7E9FB4FF478404FF681
:10447000FF7366224FF4967100904FF48270FDF73F
:10448000DDFB4FF478404FF6FF7366224FF49671D0
:1044900000904FF48670FDF7D1FB4FF478404FF653
:1044A000FF7369224FF4967100904FF48A70FDF704
:1044B000C5FB4FF478404FF6FF7363224FF49671BB
:1044C00000904FF48E70FDF7B9FB4FF478404FF633
:1044D000FF7375224FF4967100904FF49270FDF7C0
:1044E000ADFB4FF478404FF6FF736C224FF496719A
:1044F00000900846FDF7A2FB4FF478404FF6FF739B
:1045000074224FF4967100904FF49A70FDF796FB69
:104510004FF478404FF6FF7379224FF49671009074
:104520004FF49E70FDF78AFB4FF478404FF6FF730F
:1045300020224FF4967100904FF4A270FDF77EFB9D
:104540004FF478404FF6FF736C224FF49671009051
:104550004FF4A670FDF772FB4FF478404FF6FF73EF
:1045600065224FF4967100904FF4AA70FDF766FB38
:104570004FF478404FF6FF7376224FF49671009017
:104580004FF4AE70FDF75AFB4FF478404FF6FF73CF
:1045900065224FF4967100904FF4B270FDF74EFB18
:1045A0004FF478404FF6FF736C224FF496710090F1
:1045B0004FF4B670FDF742FB4FF478404FF6FF73AF
:1045C0003A224FF4967100904FF4BA70FDF736FB23
:1045D0001F204FF6FF7345224FF4AF710090642007
:1045E000FDF72CFB1F204FF6FF7361224FF4AF71D4
:1045F00000906C20FDF722FB1F204FF6FF73732203
:104600004FF4AF7100907420FDF718FB1F204FF698
:10461000FF7379224FF4AF7100907C20FDF70EFB01
:104620004FF6FF701F2348224FF4C871009064209A
:10463000FDF704FB4FF6FF701F2361224FF4C87192
:1046400000906C20FDF7FAFA4FF6FF701F237222DC
:104650004FF4C87100907420FDF7F0FA4FF6FF7028
:104660001F236422910000907C20FDF7E7FA4FF4AD
:1046700078404FF6FF7350224FF4E17100906420B0
:10468000FDF7DCFA4FF478404FF6FF73722201E039
:10469000809698004FF4E17100906C20FDF7CEFAFF
:1046A0004FF478404FF6FF7365224FF4E1710090AC
:1046B0007420FDF7C3FA4FF478404FF6FF7373226E
:1046C0004FF4E17100907C20FDF7B8FA4FF4784088
:1046D0004FF6FF7373224FF4E17100908420FDF7D1
:1046E000ADFA4FF478404FF6FF7320224FF4E1719A
:1046F00000908C20FDF7A2FA4FF478404FF6FF733C
:104700004B224FF4E17100909420FDF797FA4FF49B
:1047100078404FF6FF7345224FF4E17100909C20E2
:10472000FDF78CFA4FF478404FF6FF7359224FF49F
:10473000E1710090A420FDF781FA4FF478404FF624
:10474000FF7330224FF4E1710090AC20FDF776FA50
:104750004FF478404FF6FF7320224FF4E171009040
:10476000B420FDF76BFA4FF478404FF6FF737422D4
:104770004FF4E1710090BC20FDF760FA4FF47840EF
:104780004FF6FF736F224FF4E1710090C420FDF7E4
:1047900055FA4FF478404FF6FF7320224FF4E17141
:1047A0000090CC20FDF74AFA4FF478404FF6FF73A3
:1047B00065224FF4E1710090D420FDF73FFA4FF4E9
:1047C00078404FF6FF736E224FF4E1710090DC20C9
:1047D000FDF734FA4FF478404FF6FF7374224FF42C
:1047E000E1710090E420FDF729FA4FF478404FF68C
:1047F000FF7365224FF4E1710090EC20FDF71EFA83
:104800004FF478404FF6FF7372224FF4E17100903D
:10481000F420FDF713FA4FF478404FF6FF732E2281
:104820004FF4E1710090FC20FDF708FA08BD00008C
:104830002DE9F843E4E07448006800F0100672487F
:10484000006800F008077148006800F0010870482F
:10485000FBF71CFD6C48006800F00804002C63D1D5
:10486000BC4261D26B48006800285DD1694800688D
:10487000401C684908604FF6FF703A234FF4AF724E
:10488000202100906420FBF795FE4FF6FF701F2358
:1048900045224FF4AF7100906420FDF7CFF94FF639
:1048A000FF701F2361224FF4AF7100906C20FDF761
:1048B000C5F94FF6FF701F2373224FF4AF710090BC
:1048C0007420FDF7BBF94FF6FF701F2379224FF4D8
:1048D000AF7100907C20FDF7B1F91F204FF6FF73F8
:1048E00048224FF4C87100906420FDF7A7F91F20FB
:1048F0004FF6FF7361224FF4C87100906C20FDF7F2
:104900009DF91F204FF6FF7372224FF4C87100907B
:104910007420FDF793F91F204FF6FF736422910076
:1049200000907C20FDF78AF93848006800F0010506
:10493000002D63D0A84561D23648006801285DD1BA
:1049400034480068401E334908604FF6FF703A2330
:104950004FF4AF72202100906420FBF72BFE1F2044
:104960004FF6FF7345224FF4AF7100906420FDF7BE
:1049700065F91F204FF6FF7361224FF4AF7100906D
:104980006C20FDF75BF91F204FF6FF7373224FF485
:10499000AF7100907420FDF751F91F204FF6FF739F
:1049A00079224FF4AF7100907C20FDF747F94FF664
:1049B000FF701F2348224FF4C87100906420FDF758
:1049C0003DF94FF6FF701F2361224FF4C87100902C
:1049D0006C20FDF733F94FF6FF701F2372224FF45E
:1049E000C87100907420FDF729F94FF6FF701F235E
:1049F0006422910000907C20FDF720F906B900E0C8
:104A000019E700BFBDE8F883081801400808014015
:104A100020A107000000002008B54FF6FF704FF4FA
:104A2000487300224FF4F07100901046FBF7C2FD6E
:104A30004FF478404FF6FF7355224FF49671009073
:104A40002A20FDF73BF94FF478404FF6FF737322AD
:104A50004FF4967100903620FDF730F94FF478400E
:104A60004FF6FF7365224FF4967100904220FDF7D8
:104A700025F94FF478404FF6FF7320224FF49671DA
:104A800000904E20FDF71AF94FF478404FF6FF736F
:104A900055224FF4967100905A20FDF70FF94FF40C
:104AA00078404FF6FF7353224FF4967100906620C2
:104AB000FDF704F94FF478404FF6FF7341224FF4AD
:104AC000967100907220FDF7F9F84FF478404FF698
:104AD000FF7352224FF4967100907E20FDF7EEF89E
:104AE0004FF478404FF6FF7354224FF496710090C4
:104AF0008A20FDF7E3F84FF478404FF6FF73202249
:104B00004FF4967100909620FDF7D8F84FF4784056
:104B10004FF6FF7366224FF496710090A220FDF7C6
:104B2000CDF84FF478404FF6FF736F224FF4967133
:104B30000090AE20FDF7C2F84FF478404FF6FF73B7
:104B400072224FF496710090BA20FDF7B7F84FF437
:104B500078404FF6FF7320224FF496710090C620E4
:104B6000FDF7ACF84FF478404FF6FF7361224FF435
:104B700096710090D220FDF7A1F84FF478404FF6DF
:104B8000FF7320224FF496710090DE20FDF796F817
:104B90004FF478404FF6FF7372224FF496710090F5
:104BA000EA20FDF78BF84FF478404FF6FF7361224F
:104BB0004FF496710090F620FDF780F84FF478409E
:104BC0004FF6FF736E224FF4967100904FF4817090
:104BD000FDF774F84FF478404FF6FF7364224FF4FA
:104BE000967100904FF48770FDF768F84FF47840A5
:104BF0004FF6FF736F224FF4967100904FF48D7053
:104C0000FDF75CF84FF478404FF6FF736D224FF4D8
:104C100096710090881FFDF751F84FF478404FF6D9
:104C2000FF7320224FF496710090881DFDF746F81F
:104C30004FF478404FF6FF7364224FF49671009062
:104C40004FF49F70FDF73AF84FF478404FF6FF733A
:104C500069224FF4967100904FF4A570FDF72EF87D
:104C60004FF478404FF6FF7372224FF49671009024
:104C70004FF4AB70FDF722F84FF478404FF6FF7316
:104C800065224FF4967100904FF4B170FDF716F85D
:104C90004FF478404FF6FF7363224FF49671009003
:104CA0004FF4B770FDF70AF84FF478404FF6FF73F2
:104CB00074224FF4967100904FF4BD70FCF7FEFF24
:104CC0004FF478404FF6FF7369224FF496710090CD
:104CD0004FF4C370FCF7F2FF4FF478404FF6FF73C8
:104CE0006F224FF4967100904FF4C970FCF7E6FF05
:104CF0004FF478404FF6FF736E224FF49671009098
:104D00004FF4CF70FCF7DAFF4FF478404FF6FF73A3
:104D10002E224FF4967100904FF4D570FCF7CEFF21
:104D2000FDF7E4F800F000F908BD000008B54FF603
:104D3000FF704FF4487300224FF4F071009010465A
:104D4000FBF738FC4FF6FF708C234FF4A5724B2114
:104D50000090CA20FBF72EFC4FF4784303224FF457
:104D6000A571CA20FCF7A6FC3248FBF78FFA4FF674
:104D7000FF708C234FF4A5724B210090CA20FBF7E3
:104D800019FC4FF4784302224FF4A571CA20FCF7B6
:104D900091FC2848FBF77AFA4FF6FF708C234FF40A
:104DA000A5724B210090CA20FBF704FC4FF4784316
:104DB00001224FF4A571CA20FCF77CFC1D48FBF7CB
:104DC00065FA4FF6FF708C234FF4A5724B210090CB
:104DD000CA20FBF7EFFB4FF4784300224FF4A57194
:104DE000CA20FCF767FC1348FBF750FA4FF6FF7038
:104DF0004FF4487300224FF4F07100901046FBF717
:104E0000D9FB0520FBF7D2FAFEF74AFE41F61F4117
:104E100042F20F70FCF7F4FF40F2CF2140F2F310A2
:104E2000FDF710F840F2CF2141F28730FDF734F85A
:104E300008BD0000809698007047000010B5134828
:104E4000006840F0010011490860084640681049B8
:104E500008400E494860084600680E4908400B4962
:104E600008600846006820F4802008600846406812
:104E700020F4FE0048604FF41F008860FEF78DFEAE
:104E80004FF000600449086010BD000000100240AF
:104E90000000FFF8FFFFF6FE08ED00E010B54FF050
:104EA0008040008A00F0010020B10748006808B97E
:104EB00000F082FB4FF08040008A20F001004FF0AC
:104EC0008041088210BD00004800002010B507484E
:104ED000008800F0010008B1FDF778F80348008869
:104EE00020F001000149088010BD000010080040BA
:104EF00010B50C48008800F0010058B1FDF724FA05
:104F0000FDF794FDFEF704F94CF25030FBF7BEF9C3
:104F100000F0FCFA0348008820F0010001490880F5
:104F200010BD0000100C004038B5FE48008800F0AD
:104F3000200000287DD0FB48001D0488AFE2002C33
:104F400052D10020F84908604FF6FF704FF47843C3
:104F500053224FF4F0710090C620FCF7AFFE4FF6DD
:104F6000FF704FF4784355224FF4F0710090D22037
:104F7000FCF7A4FE4FF6FF704FF4784343224FF442
:104F8000F0710090DE20FCF799FE4FF6FF704FF4B1
:104F9000784343224FF4F0710090EA20FCF78EFE34
:104FA0004FF6FF704FF4784345224FF4F0710090B4
:104FB000F620FCF783FE4FF6FF704FF47843532240
:104FC0004FF4F07100904FF48170FCF777FE4FF6CC
:104FD000FF704FF4784353224FF4F07100904FF478
:104FE0008770FCF76BFE5BE2012C54D10120CE49A7
:104FF00008604FF6FF704FF4784353224FF4F0717E
:105000000090C620FCF75AFE4FF6FF704FF478432D
:1050100055224FF4F0710090D220FCF74FFE4FF66E
:10502000FF704FF4784343224FF4F0710090DE207C
:1050300000E03BE2FCF742FE4FF6FF704FF478438E
:1050400043224FF4F0710090EA20FCF737FE4FF650
:10505000FF704FF4784345224FF4F0710090F62032
:10506000FCF72CFE4FF6FF704FF4784353224FF4B9
:10507000F07100904FF48170FCF720FE4FF6FF7046
:105080004FF4784353224FF4F07100904FF487703F
:10509000FCF714FE04E2022C52D10220A24908605F
:1050A0004FF6FF704FF4784353224FF4F0710090A5
:1050B000C620FCF703FE4FF6FF704FF478435522ED
:1050C0004FF4F0710090D220FCF7F8FD4FF6FF701E
:1050D0004FF4784343224FF4F0710090DE20FCF748
:1050E000EDFD4FF6FF704FF4784343224FF4F0711B
:1050F0000090EA20FCF7E2FD4FF6FF704FF4784392
:1051000045224FF4F0710090F620FCF7D7FD4FF6E2
:10511000FF704FF4784353224FF4F07100904FF436
:105120008170FCF7CBFD4FF6FF704FF478435322AC
:105130004FF4F07100904FF48770FCF7BFFDAFE1C2
:10514000032C52D10320784908604FF6FF704FF4CA
:10515000784353224FF4F0710090C620FCF7AEFD67
:105160004FF6FF704FF4784355224FF4F0710090E2
:10517000D220FCF7A3FD4FF6FF704FF47843432293
:105180004FF4F0710090DE20FCF798FD4FF6FF70B1
:105190004FF4784343224FF4F0710090EA20FCF77B
:1051A0008DFD4FF6FF704FF4784345224FF4F071B8
:1051B0000090F620FCF782FD4FF6FF704FF4784325
:1051C00053224FF4F07100904FF48170FCF776FD9C
:1051D0004FF6FF704FF4784353224FF4F071009074
:1051E0004FF48770FCF76AFD5AE1042C52D1042079
:1051F0004D4908604FF6FF704FF4784353224FF447
:10520000F0710090C620FCF759FD4FF6FF704FF487
:10521000784355224FF4F0710090D220FCF74EFDF8
:105220004FF6FF704FF4784343224FF4F071009033
:10523000DE20FCF743FD4FF6FF704FF47843432226
:105240004FF4F0710090EA20FCF738FD4FF6FF7044
:105250004FF4784345224FF4F0710090F620FCF7AC
:105260002DFD4FF6FF704FF4784353224FF4F07149
:1052700000904FF48170FCF721FD4FF6FF704FF462
:10528000784353224FF4F07100904FF48770FCF78D
:1052900015FD05E1052C58D10520234908604FF67E
:1052A000FF704FF4784353224FF4F0710090C62002
:1052B000FCF704FD4FF6FF704FF4784355224FF48E
:1052C000F0710090D220FCF7F9FC4FF6FF704FF41C
:1052D000784343224FF4F0710090DE20FCF7EEFC9F
:1052E0004FF6FF704FF4784343224FF4F071009073
:1052F000EA20FCF7E3FC4FF6FF704FF478434522B9
:105300004FF4F0710090F620FCF7D8FC4FF6FF70D8
:105310004FF4784353224FF4F07100904FF48170B2
:1053200004E00000003801403C000020FCF7C6FC0F
:105330004FF6FF704FF4784353224FF4F071009012
:105340004FF48770FCF7BAFCAAE0062C52D1062075
:10535000574908604FF6FF704FF4784353224FF4DB
:10536000F0710090C620FCF7A9FC4FF6FF704FF4D7
:10537000784355224FF4F0710090D220FCF79EFC48
:105380004FF6FF704FF4784343224FF4F0710090D2
:10539000DE20FCF793FC4FF6FF704FF47843432276
:1053A0004FF4F0710090EA20FCF788FC4FF6FF7094
:1053B0004FF4784345224FF4F0710090F620FCF74B
:1053C0007DFC4FF6FF704FF4784353224FF4F07199
:1053D00000904FF48170FCF771FC4FF6FF704FF4B2
:1053E000784353224FF4F07100904FF48770FCF72C
:1053F00065FC55E0072C52D107202D4908604FF677
:10540000FF704FF4784353224FF4F0710090C620A0
:10541000FCF754FC4FF6FF704FF4784355224FF4DD
:10542000F0710090D220FCF749FC4FF6FF704FF46A
:10543000784343224FF4F0710090DE20FCF73EFCED
:105440004FF6FF704FF4784343224FF4F071009011
:10545000EA20FCF733FC4FF6FF704FF47843452207
:105460004FF4F0710090F620FCF728FC4FF6FF7027
:105470004FF4784353224FF4F07100904FF4817051
:10548000FCF71CFC4FF6FF704FF4784353224FF4A7
:10549000F07100904FF48770FCF710FC00E04EE5CF
:1054A00000BF0448FAF7F2FEFFF740FC38BD0000E9
:1054B0003C000020002D310100BFFEE7FBF7D0F8D3
:1054C000FAF700FFFAF74AFFFAF7E6FE49F6960107
:1054D0004820FCF71BFD4FF6FF70FAF77BFF0A48E8
:1054E000FAF7D4FEFEF7CEFB0748FAF7CFFEFFF738
:1054F0009FF90548FAF7CAFEFFF78EFA0248FAF755
:10550000C5FE00BFFEE7000040420F0000B5244882
:105510000068C0F3C0002349086008460068A8B9C5
:105520006420FAF7B3FE1F48006878B91D48006888
:105530001D490968884209D21C48006818B9012031
:105540001A49086002E0002018490860FEF7E0FAF6
:10555000C0F3C0001649086008460068012816D14B
:105560006420FAF793FE1248006801280FD1104812
:10557000006810490968884209D90C48006818B9C0
:1055800001200A49086002E0002008490860054837
:10559000006805490860064800680649086000BDC3
:1055A00008180140500000204C0000204800002056
:1055B000580000205400002038B54FF6FF704FF41B
:1055C000784374224FF4967100900A20FCF776FB22
:1055D0004FF6FF704FF4784369224FF496710090B4
:1055E0001620FCF76BFB4FF6FF704FF478436D22EB
:1055F0004FF4967100902220FCF760FB4FF6FF708D
:105600004FF4784365224FF4967100902E20FCF7FA
:1056100055FB4FF6FF704FF478433A224FF49671E2
:1056200000901046FCF74AFB4FF6FF704FF47843AA
:105630006D224FF4967100905220FCF73FFB4FF61D
:10564000FF704FF4784373224FF4967100907620E8
:10565000FCF734FB4FF6FF704FF4784362224FF4AF
:10566000A27100900A20FCF729FB4FF6FF704FF45F
:1056700078436F224FF4A27100901620FCF71EFBB6
:105680004FF6FF704FF4784375224FF4A2710090EB
:105690002220FCF713FB4FF6FF704FF478436E2285
:1056A0004FF4A27100902E20FCF708FB4FF6FF701C
:1056B0004FF4784363224FF4A27100903A20FCF734
:1056C000FDFA4FF6FF704FF4784365224FF4A27154
:1056D00000904620FCF7F2FA4FF6FF704FF4784343
:1056E00073224FF4A27100905220FCF7E7FA4FF6B4
:1056F000FF704FF478433A224FF4A27100905E207D
:10570000FCF7DCFA504800683C21B0FBF1F0303087
:10571000C4B24FF6FF704FF4784322464FF49671AF
:1057200000904620FCF7CAFA474800683C21B0FBCD
:10573000F1F201FB12000A21B0FBF1F000F130049C
:105740004FF6FF704FF4784322464FF49671009065
:105750005E20FCF7B3FA3C4800680A21B0FBF1F286
:1057600001FB120000F130044FF6FF704FF4784354
:1057700022464FF4967100906A20FCF79FFA324857
:105780000068401C3049086030480068282801D86B
:10579000012000E000202D490968B1F53E7F01D3CA
:1057A000012100E00021084329490968282901D87E
:1057B000012100E00021084325490968B1F53E7F39
:1057C00001D3012100E0002108432249096828296A
:1057D00001D8012100E0002108431E490968B1F504
:1057E0003E7F01D3012100E00021084320B11A4887
:1057F0000068401C18490860174800680A21B0FB7F
:10580000F1F03030C4B24FF6FF704FF478432246C7
:105810004FF4A27100906A20FCF750FA0E4800681D
:105820000A21B0FBF1F201FB120000F130044FF647
:10583000FF704FF4784322464FF4A2710090762017
:10584000FCF73CFA38BD00004000002010000020AA
:1058500018000020200000204400002090EA010FE2
:1058600048BF81F0004100F12E82421A3CBF801AED
:1058700089184FEAD0524FF07F4C1CEA410FA2EB3F
:10588000D15318BF9CEA026F00F03B804FF0004CF0
:105890004CEA00204CEA012121FA03FC10EB0C0C2D
:1058A0001ED202F1FF325FEA1C2040EBC25038BF2B
:1058B00070471CF07F0F4FEA400C18BFBCF17F4FC0
:1058C00038BF7047C3F12003994008BF20F00100A2
:1058D000BCF17F4F38BF7047A0F1C04000F0DDB988
:1058E0004FEA3C00000A40EBC25028BF1CF0FF0FFB
:1058F0004FEA400CE6D018BFBCF17F4F38BF70476D
:10590000EAE79CEA026F05D010EA5C0F08BF00F0DE
:105910000040704710B500F07AF900BF64FBBE3E4E
:105920004FF47F0C1CEAD0121EBF1CEAD11392EA7E
:105930000C0F93EA0C0F00F0858090EA010F48BF2E
:1059400042F4807240F4000C41F400002CF07F41DE
:1059500020F07F4000B58142A2EB03020FF2081C49
:10596000ACEB504EC0F100009EF800E04FEA4E0E46
:1059700000FB0EFC38BF49004FEA2C1C02F5FA026E
:105980000CFB0EF34FEACE1E4FEA112C4FEAC12159
:105990000EEB635E42EB22420EFB0CFC4FEA1C5303
:1059A00000FB03114FEA112C4FEA01310EFB0CFCF6
:1059B0004FEADC4C00FB0C11C14228BF09184CEB2C
:1059C00003335DF804EB10EB410143EBC250B2F539
:1059D0007C0F38BF704729D512F0F00F1CBF00F1C3
:1059E000C04000F000407047008182838485868734
:1059F00088898B8C8D8E8F919293959697999A9C8E
:105A00009D9FA0A2A3A5A7A8AAACAEB0B2B3B5B7FC
:105A1000B9BCBEC0C2C5C7C9CCCED1D4D7D9DCDFD2
:105A2000E2E6E9ECF0F3F7FAFE0000004FEA400C82
:105A30000CF1807CBCF17E4F28BF7047B0F1C040B4
:105A400000F02BB990EA010F0CEAD11348BF42F4E1
:105A50008072624538BF634507D213F47F0F16D0BA
:105A600080EA010000F00040704710B500F0CFF868
:105A7000097EFC3E00F005B880EA010000F000401D
:105A8000704780EA010000F0004000F006B912F40F
:105A90007F0F04BF0248704780EA010000F0FDB8A4
:105AA0000000C07FC10DD1F19E0206DB4FEA00234A
:105AB00043F0004323FA02F07047004207D54FEA53
:105AC0004001B1F1FE4F02D24FF00000704710B517
:105AD00000F09DF849922480002070476FEA200072
