:020000040800F2
:10000000A0060020CD010008A12C0008A92B0008A3
:100010009D2C000887020008BD4500080000000074
:10002000000000000000000000000000A52C0008F7
:100030008B02000800000000A32C0008453F0008C8
:10004000E7010008E7010008E7010008E7010008F0
:10005000E7010008E7010008E7010008E7010008E0
:10006000E7010008E7010008E7010008E7010008D0
:10007000E7010008E7010008E7010008E7010008C0
:10008000E7010008E7010008E7010008E7010008B0
:10009000E7010008E7010008E7010008E7010008A0
:1000A000E7010008E7010008E7010008E701000890
:1000B000A93F0008E7010008D93F0008E701000850
:1000C000E7010008E7010008E7010008E701000870
:1000D000E70100082D400008E7010008E7010008DB
:1000E000E7010008E7010008E7010008E701000850
:1000F000E7010008E7010008E7010008E701000840
:10010000E7010008E7010008FD3F0008E7010008DB
:10011000E7010008E7010008E7010008E70100081F
:10012000E7010008E7010008E7010008E70100080F
:1001300000F002F800F03AF80AA090E8000C8244BF
:100140008344AAF10107DA4501D100F02FF8AFF29C
:10015000090EBAE80F0013F0010F18BFFB1A43F0A5
:1001600001031847B8640000D8640000103A24BFA7
:1001700078C878C1FAD8520724BF30C830C144BF0C
:1001800004680C607047000000230024002500264E
:10019000103A28BF78C1FBD8520728BF30C148BFEA
:1001A0000B6070471FB51FBD10B510BD00F031F8D2
:1001B0001146FFF7F7FF04F003FA00F04FF803B41D
:1001C000FFF7F2FF03BC00F057F800000948804732
:1001D00009480047FEE7FEE7FEE7FEE7FEE7FEE729
:1001E000FEE7FEE7FEE7FEE704480549054A064B41
:1001F00070470000493F000831010008A0000020BE
:10020000A0060020A0020020A00200207047704736
:100210007047754600F02CF8AE4605006946534617
:1002200020F00700854618B020B5FFF7DDFFBDE8D8
:1002300020404FF000064FF000074FF000084FF04D
:10024000000B21F00701AC46ACE8C009ACE8C009DE
:10025000ACE8C009ACE8C0098D46704710B504464B
:10026000AFF300802046BDE81040FFF7A8BF0000B4
:10027000004870473C00002001491820ABBEFEE753
:1002800026000200704700BFFEE77047002100E033
:10029000491C8142FCD370470848806940F008003F
:1002A000064988610648006820F00F00044908608C
:1002B0000846006840F003000860704700100240E4
:1002C000040C01402148806940F004001F49886106
:1002D0000846806940F0400088611D48006820F0B1
:1002E0000F001B4908600846006840F008000860DD
:1002F0001848006818490840164908600846006810
:1003000040F4006008600846006840F4004008605F
:100310000846006840F4002008600D480C30006872
:100320000B490C3108600B480C30006840F00400A9
:1003300008490C3108600846006840F00800086071
:100340000846006840F01000086070470010024046
:100350000008014000180140FF00F0FF10488069CC
:1003600040F008000E4988610846806940F040006E
:1003700088610C48006820F470000A49086008464B
:10038000006840F4401008600748006820F47000DE
:10039000054908600846006840F44010086070474E
:1003A00000100240000C014000180140014601F01D
:1003B00007021202054B18684FF6FF031840044B62
:1003C00018431043014B1860704700000CED00E02B
:1003D0000000FA0500B503464FF4585001F0FEFC4A
:1003E000002001F007FD4FF4305001F0F7FC00222F
:1003F00003E0184601F0FEFC521C02488242F8DB82
:1004000000BD000000DC05002DE9F04F05460E465A
:1004100092469B46002457460320A0EB4A09BBF1B5
:10042000000F48D144E0F21B91B22A1990B2099A08
:1004300000F099F8321B91B2EA1990B2099A00F0D3
:1004400092F8321991B2EA1990B2099A00F08BF839
:10045000F21991B22A1990B2099A00F084F8F219AF
:1004600091B22A1B90B2099A00F07DF8321991B22C
:10047000EA1B90B2099A00F076F8F21B91B22A1B9F
:1004800090B2099A00F06FF8321B91B2EA1B90B259
:10049000099A00F068F8641CB9F1000F03DAA000B3
:1004A000801D814404E0E01B80000A3081447F1EEF
:1004B000BC42B8DD55E052E0A04641E0A6EB0802A0
:1004C00091B22A1990B2099A00F04DF8321B91B2FC
:1004D00005EB080290B2099A00F045F8321991B282
:1004E00005EB080290B2099A00F03DF806EB08020D
:1004F00091B22A1990B2099A00F035F806EB080279
:1005000091B22A1B90B2099A00F02DF8321991B2DB
:10051000A5EB080290B2099A00F025F8A6EB0802B4
:1005200091B22A1B90B2099A00F01DF8321B91B2C9
:10053000A5EB080290B2099A00F015F808F101083D
:10054000B845BBDD641CB9F1000F03DAA000801DC3
:10055000814404E0E01B80000A3081447F1EBC42DD
:10056000AADDBDE8F08F10B503460C464FF42850C5
:1005700001F034FC181201F03DFC42F6012001F0BC
:100580002DFCD8B201F036FC4FF42C5001F026FCC3
:10059000201201F02FFC42F6013001F01FFCE0B206
:1005A00001F028FC4FF4305001F018FC104601F027
:1005B00021FC10BDF0B504460D46059F00264FF402
:1005C000285001F00BFC201201F014FC42F601202F
:1005D00001F004FCE0B201F00DFC42F6022001F053
:1005E000FDFB2919491EC1F30F2001F003FC42F65F
:1005F000032001F0F3FB2919491EC8B201F0FAFBF0
:100600004FF42C5001F0EAFB101201F0F3FB42F61C
:10061000013001F0E3FBD0B201F0ECFB42F6023016
:1006200001F0DCFB9918491EC1F30F2001F0E2FB39
:1006300042F6033001F0D2FB9918491EC8B201F00E
:10064000D9FB4FF4305001F0C9FB00BF03E038463E
:1006500001F0D0FB761C05FB03F0B042F7D8F0BDEB
:1006600010B55748406940F48070554948610846C4
:10067000806940F0080088610846806940F02000E9
:1006800088610846806940F04000886108468069BA
:1006900040F4807088614B48006820F00F004949A1
:1006A00008600846006840F003000860464800689B
:1006B00046490840444908600846006844490843E0
:1006C00041490860081F006800F0FF20091F08600A
:1006D0000846006840F0BB1008603E4800680020F3
:1006E0003C4908600846006840F0BB300860081FBD
:1006F000006820F07040091F08600846006840F05C
:10070000304008603448406820F470203249486026
:100710000846406840F4302048600846006820F0F1
:100720000F0008600846006840F00B0008600020D9
:100730004FF020418861C861284908604FF020408F
:10074000806940F480504FF02041886108468069FC
:1007500040F4804088610846806940F0100088615C
:100760000846C069C8610846C06940F00100C86118
:100770000846C06940F47060C86118480068C1F854
:100780001C0116480068C1F81C010846D0F81C017D
:1007900040F44070C1F81C010846806940F0010037
:1007A00088610F48FFF772FD00F01CF80548103013
:1007B000006840F0010003491031086010BD0000DE
:1007C00000100240000C01400414014000F0FF0042
:1007D000BB0B00BB04180140002001401C0100A01D
:1007E00020A1070010B555214FF4704001F0FAFA2E
:1007F000AA214FF2010001F0F5FA52214FF2020056
:1008000001F0F0FA08214FF2030001F0EBFA0121A8
:100810004FF2040001F0E6FA0D214FF4304001F0F0
:10082000E1FA0D214BF2010001F0DCFA0D214BF24F
:10083000020001F0D7FA35214FF4364001F0D2FA28
:1008400035214BF2016001F0CDFA35214BF2026007
:1008500001F0C8FA0D214FF4314001F0C3FA0D2127
:100860004BF2011001F0BEFA0D214BF2021001F023
:10087000B9FA35214FF4374001F0B4FA35214BF283
:10088000017001F0AFFA35214BF2027001F0AAFAC3
:1008900000214FF4324001F0A5FA00214BF2012073
:1008A00001F0A0FA00214BF2022001F09BFA242172
:1008B0004FF4384001F096FA24214BF6010001F084
:1008C00091FA24214BF6020001F08CFA01214FF439
:1008D0003F4001F087FA08214FF4334001F082FADB
:1008E00008214BF2013001F07DFA08214BF2023071
:1008F00001F078FA34214FF4394001F073FA3421D1
:100900004BF6011001F06EFA34214BF6021001F0A3
:1009100069FA24214FF43A4001F064FA24214BF69D
:10092000012001F05FFA24214BF6022001F05AFA6F
:1009300000214FF43C4001F055FA88214BF601406C
:1009400001F050FA00214BF6024001F04BFA002171
:100950004FF43D4001F046FA88214BF6015001F07A
:1009600041FA00214BF6025001F03CFA00214FF40D
:100970003E4001F037FAA3214BF6016001F032FA54
:1009800000214FF4514001F02DFA05214DF20110E4
:1009900001F028FA00214DF2021001F023FA402163
:1009A0004DF2031001F01EFA00214DF2041001F087
:1009B00019FA60214DF2051001F014FA00214DF2F0
:1009C000061001F00FFA90214DF2071001F00AFA1B
:1009D00000214DF2081001F005FA99214DF209109D
:1009E00001F000FA00214DF20A1001F0FBF9BB21E1
:1009F0004DF20B1001F0F6F900214DF20C1001F050
:100A0000F1F9DC214DF20D1001F0ECF901214DF26C
:100A10000E1001F0E7F904214DF20F1001F0E2F998
:100A200001214DF2101001F0DDF925214DF21110D8
:100A300001F0D8F901214DF2121001F0D3F959213A
:100A40004DF2131001F0CEF901214DF2141001F016
:100A5000C9F982214DF2151001F0C4F901214DF2BE
:100A6000161001F0BFF9C6214DF2171001F0BAF9C6
:100A700002214DF2181001F0B5F901214DF21910C3
:100A800001F0B0F902214DF21A1001F0ABF9022188
:100A90004DF21B1001F0A6F902214DF21C1001F0DD
:100AA000A1F939214DF21D1001F09CF902214DF2FE
:100AB0001E1001F097F979214DF21F1001F092F903
:100AC00002214DF2201001F08DF9A1214DF22110EB
:100AD00001F088F902214DF2221001F083F9D921A9
:100AE0004DF2231001F07EF903214DF2241001F0A4
:100AF00079F900214DF2251001F074F903214DF22E
:100B0000261001F06FF938214DF2271001F06AF933
:100B100003214DF2281001F065F967214DF22910EB
:100B200001F060F903214DF22A1001F05BF98F21E9
:100B30004DF22B1001F056F903214DF22C1001F06B
:100B400051F9CD214DF22D1001F04CF903214DF258
:100B50002E1001F047F9FD214DF22F1001F042F95E
:100B600003214DF2301001F03DF9FE214DF231101C
:100B700001F038F903214DF2321001F033F9FF2171
:100B80004DF2331001F02EF900214FF4524001F0E4
:100B900029F905214DF2012001F024F900214DF23F
:100BA000022001F01FF940214DF2032001F01AF953
:100BB00000214DF2042001F015F96D214DF20520C0
:100BC00001F010F900214DF2062001F00BF99021FF
:100BD0004DF2072001F006F900214DF2082001F046
:100BE00001F999214DF2092001F0FCF800214DF2A4
:100BF0000A2001F0F7F8BB214DF20B2001F0F2F8CA
:100C000000214DF20C2001F0EDF8DC214DF20D2019
:100C100001F0E8F801214DF20E2001F0E3F8042183
:100C20004DF20F2001F0DEF801214DF2102001F00D
:100C3000D9F825214DF2112001F0D4F801214DF20F
:100C4000122001F0CFF859214DF2132001F0CAF81B
:100C500001214DF2142001F0C5F882214DF215203A
:100C600001F0C0F801214DF2162001F0BBF8C621B9
:100C70004DF2172001F0B6F802214DF2182001F0D4
:100C8000B1F801214DF2192001F0ACF802214DF22A
:100C90001A2001F0A7F802214DF21B2001F0A2F862
:100CA00002214DF21C2001F09DF839214DF21D204A
:100CB00001F098F802214DF21E2001F093F87921FD
:100CC0004DF21F2001F08EF802214DF2202001F09C
:100CD00089F8A1214DF2212001F084F802214DF282
:100CE000222001F07FF8D9214DF2232001F07AF87B
:100CF00003214DF2242001F075F800214DF225204A
:100D000001F070F803214DF2262001F06BF8382134
:100D10004DF2272001F066F803214DF2282001F062
:100D200061F867214DF2292001F05CF803214DF2B2
:100D30002A2001F057F88F214DF22B2001F052F8B4
:100D400003214DF22C2001F04DF8CD214DF22D2044
:100D500001F048F803214DF22E2001F043F8FD2167
:100D60004DF22F2001F03EF803214DF2302001F02A
:100D700039F8FE214DF2312001F034F803214DF213
:100D8000322001F02FF8FF214DF2332001F02AF834
:100D900000214FF4534001F025F805214DF20130B8
:100DA00001F020F800214DF2023001F01BF8402143
:100DB0004DF2033001F016F800214DF2043001F03D
:100DC00011F86D214DF2053001F00CF800214DF2C3
:100DD000063001F007F890214DF2073001F002F8DB
:100DE00000214DF2083000F0FDFF99214DF209304D
:100DF00000F0F8FF00214DF20A3000F0F3FFBB21B4
:100E00004DF20B3000F0EEFF00214DF20C3000F0FF
:100E1000E9FFDC214DF20D3000F0E4FF01214DF23D
:100E20000E3000F0DFFF04214DF20F3000F0DAFF4A
:100E300001214DF2103000F0D5FF25214DF2113087
:100E400000F0D0FF01214DF2123000F0CBFF59210C
:100E50004DF2133000F0C6FF01214DF2143000F0C6
:100E6000C1FF82214DF2153000F0BCFF01214DF28F
:100E7000163000F0B7FFC6214DF2173000F0B2FF78
:100E800002214DF2183000F0ADFF01214DF2193072
:100E900000F0A8FF02214DF21A3000F0A3FF02215A
:100EA0004DF21B3000F09EFF02214DF21C3000F08D
:100EB00099FF39214DF21D3000F094FF02214DF2CF
:100EC0001E3000F08FFF79214DF21F3000F08AFFB5
:100ED00002214DF2203000F085FFA1214DF221309A
:100EE00000F080FF02214DF2223000F07BFFD9217B
:100EF0004DF2233000F076FF03214DF2243000F054
:100F000071FF00214DF2253000F06CFF03214DF2FE
:100F1000263000F067FF38214DF2273000F062FFE5
:100F200003214DF2283000F05DFF67214DF229309A
:100F300000F058FF03214DF22A3000F053FF8F21BB
:100F40004DF22B3000F04EFF03214DF22C3000F01B
:100F500049FFCD214DF22D3000F044FF03214DF229
:100F60002E3000F03FFFFD214DF22F3000F03AFF10
:100F700003214DF2303000F035FFFE214DF23130CB
:100F800000F030FF03214DF2323000F02BFFFF2143
:100F90004DF2333000F026FF00214FF4544000F0B2
:100FA00021FF05214DF2014000F01CFF00214DF210
:100FB000024000F017FF40214DF2034000F012FF05
:100FC00000214DF2044000F00DFF6D214DF205406F
:100FD00000F008FF00214DF2064000F003FF9021D1
:100FE0004DF2074000F0FEFE00214DF2084000F0F7
:100FF000F9FE99214DF2094000F0F4FE00214DF276
:101000000A4000F0EFFEBB214DF20B4000F0EAFE7B
:1010100000214DF20C4000F0E5FEDC214DF20D40C8
:1010200000F0E0FE01214DF20E4000F0DBFE042155
:101030004DF20F4000F0D6FE01214DF2104000F0BD
:10104000D1FE25214DF2114000F0CCFE01214DF2E0
:10105000124000F0C7FE59214DF2134000F0C2FECD
:1010600001214DF2144000F0BDFE82214DF21540E9
:1010700000F0B8FE01214DF2164000F0B3FEC6218B
:101080004DF2174000F0AEFE02214DF2184000F084
:10109000A9FE01214DF2194000F0A4FE02214DF2FB
:1010A0001A4000F09FFE02214DF21B4000F09AFE14
:1010B00002214DF21C4000F095FE39214DF21D40F9
:1010C00000F090FE02214DF21E4000F08BFE7921CF
:1010D0004DF21F4000F086FE02214DF2204000F04C
:1010E00081FEA1214DF2214000F07CFE02214DF253
:1010F000224000F077FED9214DF2234000F072FE2D
:1011000003214DF2244000F06DFE00214DF22540F8
:1011100000F068FE03214DF2264000F063FE382106
:101120004DF2274000F05EFE03214DF2284000F012
:1011300059FE67214DF2294000F054FE03214DF283
:101140002A4000F04FFE8F214DF22B4000F04AFE66
:1011500003214DF22C4000F045FECD214DF22D40F3
:1011600000F040FE03214DF22E4000F03BFEFD2139
:101170004DF22F4000F036FE03214DF2304000F0DA
:1011800031FEFE214DF2314000F02CFE03214DF2E4
:10119000324000F027FEFF214DF2334000F022FEE6
:1011A00000214FF4554000F01DFE05214DF2015085
:1011B00000F018FE00214DF2025000F013FE402115
:1011C0004DF2035000F00EFE00214DF2045000F0ED
:1011D00009FE6D214DF2055000F004FE00214DF294
:1011E000065000F0FFFD90214DF2075000F0FAFD8F
:1011F00000214DF2085000F0F5FD99214DF2095003
:1012000000F0F0FD00214DF20A5000F0EBFDBB2193
:101210004DF20B5000F0E6FD00214DF20C5000F0B5
:10122000E1FDDC214DF20D5000F0DCFD00214DF21E
:101230000E5000F0D7FD04214DF20F5000F0D2FD0A
:1012400001214DF2105000F0CDFD25214DF211503D
:1012500000F0C8FD01214DF2125000F0C3FD5921EC
:101260004DF2135000F0BEFD01214DF2145000F07C
:10127000B9FD82214DF2155000F0B4FD01214DF26F
:10128000165000F0AFFDC6214DF2175000F0AAFD38
:1012900002214DF2185000F0A5FD01214DF2195028
:1012A00000F0A0FD02214DF21A5000F09BFD02213A
:1012B0004DF21B5000F096FD02214DF21C5000F043
:1012C00091FD39214DF21D5000F08CFD02214DF2AF
:1012D0001E5000F087FD79214DF21F5000F082FD75
:1012E00002214DF2205000F07DFDA1214DF2215050
:1012F00000F078FD02214DF2225000F073FDD9215B
:101300004DF2235000F06EFD03214DF2245000F009
:1013100069FD00214DF2255000F064FD03214DF2DE
:10132000265000F05FFD38214DF2275000F05AFDA5
:1013300003214DF2285000F055FD67214DF2295050
:1013400000F050FD03214DF22A5000F04BFD8F219B
:101350004DF22B5000F046FD03214DF22C5000F0D1
:1013600041FDCD214DF22D5000F03CFD03214DF209
:101370002E5000F037FDFD214DF22F5000F032FDD0
:1013800003214DF2305000F02DFDFE214DF2315081
:1013900000F028FD03214DF2325000F023FDFF2123
:1013A0004DF2335000F01EFD00214FF4564000F086
:1013B00019FD05214DF2016000F014FD00214DF2F0
:1013C000026000F00FFD40214DF2036000F00AFDC5
:1013D00000214DF2046000F005FD6D214DF2056025
:1013E00000F000FD00214DF2066000F0FBFC9021B2
:1013F0004DF2076000F0F6FC00214DF2086000F0AD
:10140000F1FC99214DF2096000F0ECFC00214DF255
:101410000A6000F0E7FCBB214DF20B6000F0E2FC3B
:1014200000214DF20C6000F0DDFCDC214DF20D607E
:1014300000F0D8FC01214DF20E6000F0D3FC042135
:101440004DF20F6000F0CEFC01214DF2106000F073
:10145000C9FC25214DF2116000F0C4FC01214DF2C0
:10146000126000F0BFFC59214DF2136000F0BAFC8D
:1014700001214DF2146000F0B5FC82214DF215609F
:1014800000F0B0FC01214DF2166000F0ABFCC6216B
:101490004DF2176000F0A6FC02214DF2186000F03A
:1014A000A1FC01214DF2196000F09CFC02214DF2DB
:1014B0001A6000F097FC02214DF21B6000F092FCD4
:1014C00002214DF21C6000F08DFC39214DF21D60AF
:1014D00000F088FC02214DF21E6000F083FC7921AF
:1014E0004DF21F6000F07EFC02214DF2206000F002
:1014F00079FCA1214DF2216000F074FC02214DF233
:10150000226000F06FFCD9214DF2236000F06AFCEC
:1015100003214DF2246000F065FC00214DF22560AE
:1015200000F060FC03214DF2266000F05BFC3821E6
:101530004DF2276000F056FC03214DF2286000F0C8
:1015400051FC67214DF2296000F04CFC03214DF263
:101550002A6000F047FC8F214DF22B6000F042FC26
:1015600003214DF22C6000F03DFCCD214DF22D60A9
:1015700000F038FC03214DF22E6000F033FCFD2119
:101580004DF22F6000F02EFC03214DF2306000F090
:1015900029FCFE214DF2316000F024FC03214DF2C4
:1015A000326000F01FFCFF214DF2336000F01AFCA6
:1015B00055214FF4704000F015FCAA214FF20100B4
:1015C00000F010FC52214FF2020000F00BFC082149
:1015D0004FF2030000F006FC00214FF2040000F07F
:1015E00001FCCC214FF4314000F0FCFB00214BF218
:1015F000011000F0F7FB05214FF4364000F0F2FB3C
:1016000070214FF4374000F0EDFB70214BF2017078
:1016100000F0E8FB01214FF4384000F0E3FB052126
:101620004BF6010000F0DEFB05214BF6020000F056
:10163000D9FB05214BF6030000F0D4FB00214FF449
:101640003C4000F0CFFB00214BF6014000F0CAFB0C
:1016500000214BF6024000F0C5FBD0214FF4494079
:1016600000F0C0FB82214CF6011000F0BBFB5021C2
:101670004CF6021000F0B6FB50214CF6031000F0BF
:10168000B1FB50214CF6041000F0ACFB55214FF497
:10169000685000F0A7FB4FF4885000F09FFB04480F
:1016A000FEF7F4FD4FF4245000F098FB10BD00004D
:1016B000C0D401000FB583B0059800284FD106981B
:1016C000009003980A3080B20A2302903721049ACE
:1016D000FEF770FF0698009004980A3080B2372316
:1016E00002460A2102900398FEF764FF06980090D4
:1016F00004980A3080B202900398413080B23723B8
:1017000001900A21029AFEF755FF0698009004986E
:101710004B3080B2372302460A2102900398FEF72D
:1017200049FF0698009004984B3080B202900398CD
:10173000413080B2372301900A21029AFEF73AFF26
:10174000069800900498823080B2029003980A3084
:1017500080B20A2301903721029AFEF72BFF0598E9
:1017600001281DD10698009004980A3080B202909A
:101770000398413080B2372301900A21029AFEF784
:1017800019FF0698009004984B3080B2029003989D
:10179000413080B2372301900A21029AFEF70AFFF6
:1017A0000598022843D10698009003980A3080B229
:1017B0000A2302903721049AFEF7FCFE0698009057
:1017C00004980A3080B202900398413080B23723E7
:1017D00001900A21029AFEF7EDFE06980090049807
:1017E000413080B2029003980A3080B20A230190FF
:1017F0003721029AFEF7DEFE0698009004984B30DF
:1018000080B2372302460A2102900398FEF7D2FEE7
:10181000069800900498823080B2029003980A30B3
:1018200080B20A2301903721029AFEF7C3FE059881
:10183000032846D10698009003980A3080B20A2304
:1018400002903721049AFEF7B5FE0698009004989E
:101850000A3080B202900398413080B23723019061
:101860000A21029AFEF7A6FE0698009004984130DD
:1018700080B2029003980A3080B20A230190372187
:10188000029AFEF797FE0698009004984B3080B2BB
:1018900002900398413080B2372301900A21029AC6
:1018A000FEF788FE069800900498823080B202907D
:1018B00003980A3080B20A2301903721029AFEF77A
:1018C00079FE0598042838D10698009004980A30CB
:1018D00080B2372302460A2102900398FEF76AFE7F
:1018E0000698009004980A3080B202900398413024
:1018F00080B2372301900A21029AFEF75BFE069818
:1019000000900498413080B2029003980A3080B26F
:101910000A2301903721029AFEF74CFE06980090A8
:1019200004984B3080B202900398413080B2372344
:1019300001900A21029AFEF73DFE0598052843D141
:101940000698009003980A3080B20A23029037214B
:10195000049AFEF72FFE0698009004980A3080B291
:10196000372302460A2102900398FEF723FE0698C9
:1019700000900498413080B2029003980A3080B2FF
:101980000A2301903721029AFEF714FE0698009070
:1019900004984B3080B202900398413080B23723D4
:1019A00001900A21029AFEF705FE0698009004981D
:1019B000823080B2029003980A3080B20A230190EC
:1019C0003721029AFEF7F6FD059806284FD10698B2
:1019D000009003980A3080B20A2302903721049ABB
:1019E000FEF7E8FD0698009004980A3080B237238D
:1019F00002460A2102900398FEF7DCFD069800904B
:101A00000498413080B2029003980A3080B20A23D1
:101A100001903721029AFEF7CDFD069800900498B8
:101A20004B3080B2372302460A2102900398FEF71A
:101A3000C1FD0698009004984B3080B20290039844
:101A4000413080B2372301900A21029AFEF7B2FD9D
:101A5000069800900498823080B2029003980A3071
:101A600080B20A2301903721029AFEF7A3FD059860
:101A7000072828D10698009003980A3080B20A23DC
:101A800002903721049AFEF795FD0698009004987D
:101A90000A3080B202900398413080B2372301901F
:101AA0000A21029AFEF786FD0698009004984B30B2
:101AB00080B202900398413080B2372301900A210E
:101AC000029AFEF777FD059808285ED106980090E7
:101AD00003980A3080B20A2302903721049AFEF755
:101AE00069FD0698009004980A3080B237230246B8
:101AF0000A2102900398FEF75DFD06980090049875
:101B00000A3080B202900398413080B237230190AE
:101B10000A21029AFEF74EFD069800900498413083
:101B200080B2029003980A3080B20A2301903721D4
:101B3000029AFEF73FFD0698009004984B3080B261
:101B4000372302460A2102900398FEF733FD0698D8
:101B5000009004984B3080B202900398413080B2DC
:101B6000372301900A21029AFEF724FD069800907F
:101B70000498823080B2029003980A3080B20A231F
:101B800001903721029AFEF715FD0598092852D1D8
:101B90000698009003980A3080B20A2302903721F9
:101BA000049AFEF707FD0698009004980A3080B268
:101BB000372302460A2102900398FEF7FBFC0698A1
:101BC000009004980A3080B202900398413080B2AD
:101BD000372301900A21029AFEF7ECFC0698009048
:101BE0000498413080B2029003980A3080B20A23F0
:101BF00001903721029AFEF7DDFC069800900498C8
:101C00004B3080B202900398413080B2372301906C
:101C10000A21029AFEF7CEFC0698009004988230C2
:101C200080B2029003980A3080B20A2301903721D3
:101C3000029AFEF7BFFC07B000BD00002DE9F84F87
:101C400080460F4691469A460A9810233A46082144
:101C500000904046FEF7AEFC002428E0A9F12000E9
:101C6000154901EB001010F804B000251CE04BFAF8
:101C700005F000F00100B0B1264604EBD672521018
:101C8000A4EB420307F10802521B4FF0080C0CFBB7
:101C9000032291B204EBD47208EB620290B2524676
:101CA0000094FEF760FC6D1C082DE0DB641C102C1A
:101CB000D4DBBDE8F88F0000CE5200082DE9F04FCC
:101CC00004460D4616469A46DDF8249018224FF039
:101CD0000C0B202E01DB7F2E01DDBDE8F08FA6F17D
:101CE0002000C6B24FF4285000F078F8201200F01F
:101CF00081F842F6012000F071F8E0B200F07AF8C5
:101D000042F6022000F06AF80BEB0401491EC1F311
:101D10000F2000F06FF842F6032000F05FF80BEBA5
:101D20000401491EC8B200F065F84FF42C5000F0D1
:101D300055F8281200F05EF842F6013000F04EF837
:101D4000E8B200F057F842F6023000F047F85119B7
:101D5000491EC1F30F2000F04DF842F6033000F0A9
:101D60003DF85119491EC8B200F044F84FF4305004
:101D700000F034F8002327E000271EE04FF00008B1
:101D800017E006EBC600144901EB800008EB4801A0
:101D90001944405CB84000F0800018B1504600F093
:101DA00029F802E0484600F025F808F1010000F0AB
:101DB000FF08D845E5DB781CC7B2032092FBF0F0A2
:101DC000B842DBDC581CC3B2D11702EB5171B3EB44
:101DD000E10FD1DB00BF80E7BE5800084FF0D841CB
:101DE000088070474FF0D8421080014A1180704738
:101DF0000008006C01490880704700000008006C72
:101E00000D4AD26942F001020B4BDA619A049085C7
:101E10001185928942F001029B049A811A46128828
:101E200042F001021A804523044A13704FF0805299
:101E3000034B1A6070470000001002401CE400E0F1
:101E400000E100E0104AD26942F004020E4BDA6170
:101E50000E4A1080121F11800C4A203A128842F05C
:101E600001020A4B203B1A80084A2C3A128842F0A1
:101E70000102064B2C3B1A804523054A13709A0732
:101E8000044B1A6070470000001002402C0800400C
:101E90001EE400E000E100E0104AD26942F00802CE
:101EA0000E4BDA610E4A1080121F11800C4A203A44
:101EB000128842F001020A4B203B1A80084A2C3A51
:101EC000128842F00102064B2C3B1A804523054A3A
:101ED00013704FF48022044B1A60704700100240C8
:101EE0002C0C004012E400E004E100E095210548DC
:101EF00001700548006840F020004FF0E021C1F873
:101F00000401704725E400E004E100E02DE9F05F02
:101F100005460E46300102F041FE8146274905FB89
:101F200001F002F03BFE8246494602F055FD0746AD
:101F3000384602F013FE84B2204602F02FFE83469C
:101F4000394602F00BFF82464FF0834102F03AFE21
:101F5000814602F003FE80464FF6FF7000EA04144B
:101F600004EB080084B21648806940F0040014496C
:101F700088610846806940F48040886111480068A3
:101F800020F47F600F4908600846006840F40B6049
:101F900008600B48C06840F480400949C8600846A2
:101FA000C06820F48040C8600748048042F22C00DA
:101FB0000549091D0880BDE8F09F000040420F0060
:101FC00000100240040801400838014038B500F014
:101FD00025FE0446D748006800287DD1D648006811
:101FE00000287AD1D54900900988283988B20F2372
:101FF00000225021FEF7DEFAC4F38010CF490968B1
:10200000282901D3012100E000210840F0B14FF65A
:10201000FF70CA4900900988283988B20F2300222E
:102020005021FEF7C7FAC54800680838C349086060
:10203000002000900988283988B20F2300225021FF
:10204000FEF7B8FA42F21070FEF720F9012080EA9C
:10205000D41080F00100B9490968B1F5DC7F01D8DE
:10206000012100E000210840F0B14FF6FF70B349B4
:1020700000900988283988B20F2300225021FEF7EA
:1020800099FAAE4800680830AC490860002000901A
:102090000988283988B20F2300225021FEF78AFAD6
:1020A00042F21070FEF7F2F80020A549009009886E
:1020B000283988B20F2340F211325021FEF77AFA04
:1020C000A0480068C0F3800080F001009C490968C6
:1020D000282903D3012102E0D4E054E00021084084
:1020E00000B34FF6FF70964900900988283988B2EE
:1020F0000F2340F211325021FEF75CFA904800683D
:10210000001F8F490860002000900988283988B294
:102110000F2340F211325021FEF74CFA42F21070B8
:10212000FEF7B4F887480068C0F3001080F00100A3
:1021300083490968B1F5DC7F01D8012100E0002165
:10214000084000B34FF6FF707D4900900988283998
:1021500088B20F2340F211325021FEF72BFA784853
:102160000068001D76490860002000900988283921
:1021700088B20F2340F211325021FEF71BFA42F2CF
:102180001070FEF783F86C48006801287AD10020AF
:102190006A4900900988193988B20F230022322138
:1021A000FEF708FAC4F3801064490968192901D3BD
:1021B000012100E000210840F0B14FF6FF705F49B7
:1021C00000900988193988B20F2300223221FEF7C6
:1021D000F1F95A4800680838584908600020009012
:1021E0000988193988B20F2300223221FEF7E2F95B
:1021F00042F21070FEF74AF8012080EAD41080F015
:1022000001004E490968B1F5E47F01D2012100E0E7
:1022100000210840F0B14FF6FF704849009009884E
:10222000193988B20F2300223221FEF7C3F943483F
:102230000068083041490860002000900988193979
:1022400088B20F2300223221FEF7B4F942F2107057
:10225000FEF71CF800203A4900900988193988B225
:102260000F2340F211323221FEF7A4F935480068FD
:10227000C0F3800080F0010031490968192902D3B8
:10228000012101E054E00021084000B34FF6FF7047
:102290002B4900900988193988B20F2340F2113276
:1022A0003221FEF787F926480068001F244908609C
:1022B000002000900988193988B20F2340F21132AA
:1022C0003221FEF777F942F21070FDF7DFFF1D486B
:1022D0000068C0F3001080F0010019490968B1F5E9
:1022E000E47F01D2012100E00021084000B34FF655
:1022F000FF70134900900988193988B20F2340F202
:1023000011323221FEF756F90D480068001D0C49C4
:102310000860002000900988193988B20F2340F224
:1023200011323221FEF746F942F21070FDF7AEFF8E
:1023300038BD000028000020000000200800002018
:10234000040000200818014008B5FE4800680F2866
:1023500002D80120FC490860FA480068B0F5E87F1F
:1023600002D90020F8490860F84800681E2802D801
:102370000120F7490860F548006840F202318842C0
:1023800002D30020F2490860F248006800287DD19D
:10239000F148006800283BD14FF6FF70EB4A0090EF
:1023A000128891B2E74A128890B201230F22FEF7F9
:1023B0002BF8E5480068012804D1E2480068401C79
:1023C000E0490860E048006820B9DE480068401E27
:1023D000DC490860DE480068012804D1DB48006859
:1023E000401CDA490860DA48006820B9D74800681C
:1023F000401ED64908604FF47840D44A00901288B5
:1024000091B2D04A128890B201230F22FDF7FCFF4F
:10241000D148006801283DD14FF6FF70CB4A0090AB
:10242000128891B2C74A128890B201230F22FDF799
:10243000EBFFC5480068012804D1C2480068801C31
:10244000C0490860C048006820B9BE480068801EC6
:10245000BC490860BE480068012804D1BB48006838
:10246000401CBA490860BA48006820B9B7480068FB
:10247000401EB64908604FF47840B44A0090128874
:1024800091B2B04A128890B2012300E08FE10F228E
:10249000FDF7BAFFB048006802283BD14FF6FF7045
:1024A000AA4A0090128891B2A64A128890B20123DB
:1024B0000F22FDF7A9FFA4480068012804D1A14814
:1024C0000068C01C9F4908609F48006820B99D486B
:1024D0000068C01E9B4908609D480068012804D11F
:1024E0009A480068401C994908609948006820B9DA
:1024F00096480068401E954908604FF47840934A1A
:102500000090128891B28F4A128890B201230F2254
:10251000FDF77AFF9048006803283BD14FF6FF7023
:102520008A4A0090128891B2864A128890B201239A
:102530000F22FDF769FF84480068012804D1814813
:102540000068001D7F4908607F48006820B97D4809
:102550000068001F7B4908607D480068012804D19D
:102560007A480068401C794908607948006820B9B9
:1025700076480068401E754908604FF47840734AF9
:102580000090128891B26F4A128890B201230F22F4
:10259000FDF73AFF7048006804283BD14FF6FF7002
:1025A0006A4A0090128891B2664A128890B201235A
:1025B0000F22FDF729FF64480068012804D1614813
:1025C0000068401D5F4908605F48006820B95D48A9
:1025D0000068401F5B4908605D480068012804D11D
:1025E0005A480068401C594908605948006820B999
:1025F00056480068401E554908604FF47840534AD9
:102600000090128891B24F4A128890B201230F2293
:10261000FDF7FAFE5048006805283BD14FF6FF70E1
:102620004A4A0090128891B2464A128890B2012319
:102630000F22FDF7E9FE44480068012804D1414813
:102640000068801D3F4908603F48006820B93D4848
:102650000068801F3B4908603D480068012804D19C
:102660003A480068401C394908603948006820B978
:1026700036480068401E354908604FF47840334AB8
:102680000090128891B22F4A128890B201230F2233
:10269000FDF7BAFE3048006806283BD14FF6FF70C0
:1026A0002A4A0090128891B2264A128890B20123D9
:1026B0000F22FDF7A9FE24480068012804D1214813
:1026C0000068C01D1F4908601F48006820B91D48E8
:1026D0000068C01F1B4908601D480068012804D11C
:1026E0001A480068401C194908601948006820B958
:1026F00016480068401E154908604FF47840134A98
:102700000090128891B20F4A128890B201230F22D2
:10271000FDF77AFE10480068072848D14FF6FF7091
:102720000A4A0090128891B2064A128890B2012398
:102730000F22FDF769FE04480068012811D1014805
:1027400000680BE00C0000201400002010000020A6
:1027500018000020280000201C00002008307849C4
:1027600008607848006820B97548006808387449DE
:10277000086075480068012804D174480068401C4E
:10278000724908607048006820B970480068401EAF
:102790006E4908604FF478406C4A0090128891B2FC
:1027A000674A128890B201230F22FDF72DFE684878
:1027B0000068A8BB674800682838614909688842F2
:1027C00001D9012000E000205D490A6861490968DB
:1027D00028318A4201D9012100E0002108435B49E8
:1027E00009681E2901D8012100E00021084020B11C
:1027F00000F0B6F86420554908605748006828384A
:102800004F490968884201D9012000E000204C4965
:102810000A685149096828318A4202D9012101E038
:1028200011E0002108434949096840F2023291420F
:1028300001D3012100E00021084020B100F090F810
:1028400064204249086042480068012847D1414855
:10285000006819383A490968884201D9012000E026
:10286000002037490A683B49096819318A4201D971
:10287000012100E000210843344909681E2901D8DC
:10288000012100E00021084020B100F069F8642037
:102890002E4908603048006819382949096888427B
:1028A00001D9012000E0002025490A682A49096869
:1028B00019318A4201D9012100E00021084323494E
:1028C000096840F20232914201D3012100E0002167
:1028D000084020B100F044F864201C490860184802
:1028E00000680F2801D8012000E000201449096881
:1028F000B1F5E87F01D9012100E000210843134927
:1029000009681E2901D8012100E0002108430F4970
:10291000096840F20232914201D3012100E0002116
:10292000084360B14FF480700C49086042F21070A7
:10293000FDF7ACFC4FF480700849091D086008BD24
:102940000C000020140000201800002010000020BF
:10295000000000200800002004000020100C0140AE
:1029600008B564208D4908608D48FDF78FFC002074
:102970004FF4487302464FF4F0710090FDF71AFED1
:1029800000204FF4784347224FF496710090BA200C
:10299000FFF794F900204FF4784341224FF49671E9
:1029A0000090C620FFF78AF900204FF478434D22AB
:1029B0004FF496710090D220FFF780F900204FF479
:1029C000784345224FF496710090DE20FFF776F9A8
:1029D00000204FF4784320224FF496710090EA20B3
:1029E000FFF76CF900204FF478434F224FF49671B3
:1029F0000090F620FFF762F900204FF4784356224A
:102A00004FF4967100904FF48170FFF757F9002052
:102A10004FF4784345224FF4967100904FF487703D
:102A2000FFF74CF900204FF4784352224FF496718F
:102A300000904FF48D70FFF741F900204FF4784378
:102A400050224FF4C87100909620FFF737F900200C
:102A50004FF478436C224FF4C8710090A220FFF726
:102A60002DF900204FF4784361224FF4C871009093
:102A7000AE20FFF723F900204FF4784379224FF47A
:102A8000C8710090BA20FFF719F900204FF478437D
:102A900065224FF4C8710090C620FFF70FF900209F
:102AA0004FF4784372224FF4C8710090D220FFF7A0
:102AB00005F900204FF4784320224FF4C8710090AC
:102AC000DE20FFF7FBF800204FF4784320224FF47C
:102AD000C8710090F620FFF7F1F800204FF478431A
:102AE0006C224FF4C87100904FF48170FFF7E6F844
:102AF00000204FF478436F224FF4C87100904FF4D8
:102B00008770FFF7DBF800204FF4784373224FF40F
:102B1000C87100904FF48D70FFF7D0F800204FF48B
:102B2000784365224FF4C87100904FF49370FFF71B
:102B3000C5F800204FF4784373224FF4C871009019
:102B40004FF49970FFF7BAF800204FF47843212230
:102B50004FF4C87100904FF49F70FFF7AFF8114821
:102B6000006840F20231884209D800204FF47843CF
:102B700041224FF4C8710090EA20FFF79FF80948FE
:102B800000681E2809D800204FF4784342224FF4F1
:102B9000C8710090EA20FFF791F808BD28000020D6
:102BA00040420F001000002000BFFEE71848806977
:102BB00040F00800164988610846806940F020000E
:102BC00088611448006820F47F4012490860084674
:102BD000006840F4605008600E480830006840F417
:102BE00040600C49083108600B48006820F47040D0
:102BF000094908600846006840F4405008600648EB
:102C00000C30006840F0080003490C310860704740
:102C100000100240040C01400014014008B50020DF
:102C200000901C48006840F400601A490860502079
:102C3000FDF72CFB1748006840F00060154908605C
:102C4000002322E09DF80000401000901148083851
:102C50000068C0F3802020B99DF8000040F080009B
:102C600000900D48006840F008000B4908605020B3
:102C7000FDF70CFB0848006840F400200649086096
:102C80005020FDF703FB581CC3B2082BDADB9DF87C
:102C9000000008BD100C01401014014000BFFEE709
:102CA00070477047704710B500F002F810BD000083
:102CB0000CB50020019000903348006840F480304B
:102CC0003149086000BF3048006800F400300090CF
:102CD0000198401C0190009818B90198B0F5A06FB8
:102CE000F1D12948006800F4003010B101200090B3
:102CF00001E0002000900098012843D1234800689B
:102D000040F01000214908600846006820F00300E8
:102D100008600846006840F0020008601A484068F1
:102D2000194948600846406848600846406840F4D1
:102D3000806048600846406820F47C10486008467F
:102D4000406840F4E81048600846006840F0807031
:102D5000086000BF0C48006800F000700028F9D03F
:102D60000948406820F00300074948600846406869
:102D700040F00200486000BF0348406800F00C00CB
:102D80000828F9D10CBD00000010024000200240CC
:102D900008B51F204FF6FF735722642100900846A4
:102DA000FEF78CFF1F204FF6FF7365226421009011
:102DB0007020FEF783FF1F204FF6FF736C22642103
:102DC00000907C20FEF77AFF1F204FF6FF736322EE
:102DD000642100908820FEF771FF1F204FF6FF73DB
:102DE0006F22642100909420FEF768FF1F204FF6A9
:102DF000FF736D2264210090A020FEF75FFF1F206B
:102E00004FF6FF73652264210090AC20FEF756FF59
:102E10001F204FF6FF73202264210090B820FEF798
:102E20004DFF1F204FF6FF73742264210090C420D1
:102E3000FEF744FF1F204FF6FF736F2264210090BE
:102E4000D020FEF73BFF1F204FF6FF7320226421A6
:102E50000090DC20FEF732FF1F204FF6FF736D223B
:102E600064210090E820FEF729FF1F204FF6FF7332
:102E7000692264210090F420FEF720FF1F204FF606
:102E8000FF736E22642100904FF48070FEF716FFEE
:102E90001F204FF6FF736922642100904FF4867063
:102EA000FEF70CFF1F204FF6FF73202264210090D5
:102EB0004FF48C70FEF702FF1F204FF6FF73502275
:102EC000642100904FF49270FEF7F8FE1F204FF639
:102ED000FF737222642100904FF49870FEF7EEFEAB
:102EE0001F204FF6FF736F22642100904FF49E70F5
:102EF000FEF7E4FE1F204FF6FF736A226421009064
:102F00004FF4A470FEF7DAFE1F204FF6FF73652220
:102F1000642100904FF4AA70FEF7D0FE1F204FF6F8
:102F2000FF736322642100904FF4B070FEF7C6FE79
:102F30001F204FF6FF737422642100904FF4B67087
:102F4000FEF7BCFE1F204FF6FF7321226421009084
:102F50004FF4BC70FEF7B2FEFE48FDF797F94FF450
:102F600078404FF6FF735422B42100906420FEF79E
:102F700065FE4FF478404FF6FF736822B42100904D
:102F80006C20FEF75BFE4FF478404FF6FF7369222A
:102F9000B42100907420FEF751FE4FF478404FF6B4
:102FA000FF737322B42100907C20FEF747FE4FF49C
:102FB00078404FF6FF732022B42100908420FEF762
:102FC0003DFE4FF478404FF6FF736922B421009024
:102FD0008C20FEF733FE4FF478404FF6FF737322D8
:102FE000B42100909420FEF729FE4FF478404FF66C
:102FF000FF732022B42100909C20FEF71FFE4FF4A7
:1030000078404FF6FF737422B4210090A420FEF79D
:1030100015FE4FF478404FF6FF736822B4210090FC
:10302000AC20FEF70BFE4FF478404FF6FF7365229D
:10303000B42100900846FEF701FE4FF478404FF6A9
:10304000FF732022B4210090BC20FEF7F7FD4FF45F
:1030500078404FF6FF734622B4210090C420FEF75B
:10306000EDFD4FF478404FF6FF736922B4210090D4
:10307000CC20FEF7E3FD4FF478404FF6FF736E224D
:10308000B4210090D420FEF7D9FD4FF478404FF6DC
:10309000FF736122B4210090DC20FEF7CFFD4FF4D6
:1030A00078404FF6FF736C22B4210090E420FEF7C5
:1030B000C5FD4FF478404FF6FF732022B4210090F5
:1030C000EC20FEF7BBFD4FF478404FF6FF734C2227
:1030D000B4210090F420FEF7B1FD4FF478404FF694
:1030E000FF736122B4210090FC20FEF7A7FD4FF48E
:1030F00078404FF6FF736222B42100904FF4827043
:10310000FEF79CFD4FF478404FF6FF732E22B4215A
:1031100000904FF48670FEF791FD8E48FDF7B6F8EB
:103120004FF478404FF6FF734122F0210090642065
:10313000FEF784FD4FF478404FF6FF737222F021C2
:1031400000906C20FEF77AFD4FF478404FF6FF7345
:103150006522F02100907420FEF770FD4FF4784056
:103160004FF6FF732022F02100907C20FEF766FDD1
:103170004FF478404FF6FF737922F02100908420BD
:10318000FEF75CFD4FF478404FF6FF736F22F0219D
:1031900000908C20FEF752FD4FF478404FF6FF73FD
:1031A0007522F02100909420FEF748FD4FF47840FE
:1031B0004FF6FF732022F02100909C20FEF73EFD89
:1031C0004FF478404FF6FF737222F0210090A42054
:1031D000FEF734FD4FF478404FF6FF736522F0217F
:1031E0000090AC20FEF72AFD4FF478404FF6FF73B5
:1031F0006122F0210090B420FEF720FD4FF47840CA
:103200004FF6FF736422F0210090BC20FEF716FDFC
:103210004FF478404FF6FF737922F0210090C420DC
:10322000FEF70CFD4FF478404FF6FF733F22F0217C
:103230000090CC20FEF702FD4648FDF727F84FF43A
:1032400078404FF6FF734F224FF496710090642040
:10325000FEF7F4FC4FF478404FF6FF734B229100D9
:1032600000906C20FEF7EAFC4FF478404FF6FF73B5
:1032700021224FF4967100907420FEF7DFFC4FF48A
:1032800078404FF6FF7320224FF4967100907C2017
:10329000FEF7D4FC4FF478404FF6FF734C224FF406
:1032A000967100908420FEF7C9FC4FF478404FF6E9
:1032B000FF7365224FF4967100908C20FEF7BEFCE0
:1032C0004FF478404FF6FF7374224FF496710090DC
:1032D0009420FEF7B3FC4FF478404FF6FF7327229B
:1032E0004FF4967100909C20FEF7A8FC4FF47840B4
:1032F0004FF6FF7373224FF496710090A420FEF7EF
:103300009DFC4FF478404FF6FF7320224FF49671E6
:103310000090AC20FEF792FC4FF478404FF6FF731C
:1033200073224FF496710090B420FEF787FC4FF49F
:1033300078404FF6FF7374224FF496710090BC20D2
:10334000FEF77CFC4FF478404FF6FF7361224FF498
:10335000967101E0809698000090C420FEF76EFC04
:103360004FF478404FF6FF7372224FF4967100903D
:10337000CC20FEF763FC4FF478404FF6FF737422C5
:103380004FF496710090D420FEF758FC4FF478402B
:103390004FF6FF732E224FF496710090DC20FEF75B
:1033A0004DFCFE48FCF772FF4FF6FF704FF4487378
:1033B00000224FF4F07100901046FDF7FBF84FF437
:1033C00078404FF6FF7350224FF4967100906420BE
:1033D000FEF734FC4FF478404FF6FF736C224FF445
:1033E000967100901046FEF729FC4FF478404FF696
:1033F000FF7365224FF4967100907420FEF71EFC57
:103400004FF478404FF6FF7361224FF496710090AD
:103410007C20FEF713FC4FF478404FF6FF737322C5
:103420004FF4967100908420FEF708FC4FF478402A
:103430004FF6FF7365224FF4967100908C20FEF7D3
:10344000FDFB4FF478404FF6FF7320224FF4967146
:1034500000909420FEF7F2FB4FF478404FF6FF7394
:1034600073224FF4967100909C20FEF7E7FB4FF417
:1034700078404FF6FF7365224FF496710090A420B8
:10348000FEF7DCFB4FF478404FF6FF736C224FF4ED
:1034900096710090AC20FEF7D1FB4FF478404FF6C8
:1034A000FF7365224FF496710090B420FEF7C6FBBF
:1034B0004FF478404FF6FF7363224FF496710090FB
:1034C000BC20FEF7BBFB4FF478404FF6FF7374222D
:1034D0004FF496710090C420FEF7B0FB4FF4784093
:1034E0004FF6FF7320224FF496710090CC20FEF728
:1034F000A5FB4FF478404FF6FF7374224FF496719A
:103500000090D420FEF79AFB4FF478404FF6FF73FB
:1035100068224FF496710090DC20FEF78FFB4FF489
:1035200078404FF6FF7365224FF496710090E420C7
:10353000FEF784FB4FF478404FF6FF7320224FF4E0
:1035400096710090EC20FEF779FB4FF478404FF62F
:10355000FF7364224FF496710090F420FEF76EFB27
:103560004FF478404FF6FF7369224FF49671009044
:10357000FC20FEF763FB4FF478404FF6FF736622A2
:103580004FF4967100904FF48270FEF757FB4FF4A2
:1035900078404FF6FF7366224FF4967100904FF417
:1035A0008670FEF74BFB4FF478404FF6FF736922AD
:1035B0004FF4967100904FF48A70FEF73FFB4FF482
:1035C00078404FF6FF7363224FF4967100904FF4EA
:1035D0008E70FEF733FB4FF478404FF6FF73752281
:1035E0004FF4967100904FF49270FEF727FB4FF462
:1035F00078404FF6FF736C224FF4967100900846A6
:10360000FEF71CFB4FF478404FF6FF7374224FF423
:10361000967100904FF49A70FEF710FB4FF47840CB
:103620004FF6FF7379224FF4967100904FF49E701D
:10363000FEF704FB4FF478404FF6FF7320224FF45F
:10364000967100904FF4A270FEF7F8FA4FF47840AC
:103650004FF6FF736C224FF4967100904FF4A670F2
:10366000FEF7ECFA4FF478404FF6FF7365224FF403
:10367000967100904FF4AA70FEF7E0FA4FF478408C
:103680004FF6FF7376224FF4967100904FF4AE70B0
:10369000FEF7D4FA4FF478404FF6FF7365224FF4EB
:1036A000967100904FF4B270FEF7C8FA4FF478406C
:1036B0004FF6FF736C224FF4967100904FF4B67082
:1036C000FEF7BCFA4FF478404FF6FF733A224FF4FE
:1036D000967100904FF4BA70FEF7B0FA1F204FF6C3
:1036E000FF7345224FF4AF7100906420FEF7A6FAF5
:1036F0001F204FF6FF7361224FF4AF7100906C20D2
:10370000FEF79CFA1F204FF6FF7373224FF4AF7140
:1037100000907420FEF792FA1F204FF6FF73792273
:103720004FF4AF7100907C20FEF788FA4FF6FF70DF
:103730001F2348224FF4C87100906420FEF77EFAE0
:103740004FF6FF701F2361224FF4C87100906C2068
:10375000FEF774FA4FF6FF701F2372224FF4C87100
:1037600000907420FEF76AFA4FF6FF701F23642260
:10377000910000907C20FEF761FA4FF478404FF6FC
:10378000FF7350224FF4E17100906420FEF756FA67
:103790004FF478404FF6FF73722201E08096980054
:1037A0004FF4E17100906C20FEF748FA4FF4784036
:1037B0004FF6FF7365224FF4E17100907420FEF71D
:1037C0003DFA4FF478404FF6FF7373224FF4E171E6
:1037D00000907C20FEF732FA4FF478404FF6FF73EA
:1037E00073224FF4E17100908420FEF727FA4FF422
:1037F00078404FF6FF7320224FF4E17100908C2047
:10380000FEF71CFA4FF478404FF6FF734B224FF44B
:10381000E17100909420FEF711FA4FF478404FF6D2
:10382000FF7345224FF4E17100909C20FEF706FAE9
:103830004FF478404FF6FF7359224FF4E171009036
:10384000A420FEF7FBF94FF478404FF6FF733022C7
:103850004FF4E1710090AC20FEF7F0F94FF478409E
:103860004FF6FF7320224FF4E1710090B420FEF771
:10387000E5F94FF478404FF6FF7374224FF4E1718D
:103880000090BC20FEF7DAF94FF478404FF6FF7352
:103890006F224FF4E1710090C420FEF7CFF94FF48E
:1038A00078404FF6FF7320224FF4E1710090CC2056
:1038B000FEF7C4F94FF478404FF6FF7365224FF4DA
:1038C000E1710090D420FEF7B9F94FF478404FF63B
:1038D000FF736E224FF4E1710090DC20FEF7AEF929
:1038E0004FF478404FF6FF7374224FF4E17100906B
:1038F000E420FEF7A3F94FF478404FF6FF736522FA
:103900004FF4E1710090EC20FEF798F94FF4784005
:103910004FF6FF7372224FF4E1710090F420FEF72E
:103920008DF94FF478404FF6FF732E224FF4E1717A
:103930000090FC20FEF782F908BD00002DE9F84355
:10394000E4E07448006800F010067248006800F077
:1039500008077148006800F001087048FCF796FC01
:103960006C48006800F00804002C63D1BC4261D2AE
:103970006B48006800285DD169480068401C6849B0
:1039800008604FF6FF703A234FF4AF722021009089
:103990006420FCF70FFE4FF6FF701F2345224FF403
:1039A000AF7100906420FEF749F94FF6FF701F23B6
:1039B00061224FF4AF7100906C20FEF73FF94FF693
:1039C000FF701F2373224FF4AF7100907420FEF735
:1039D00035F94FF6FF701F2379224FF4AF71009035
:1039E0007C20FEF72BF91F204FF6FF7348224FF47F
:1039F000C87100906420FEF721F91F204FF6FF7375
:103A000061224FF4C87100906C20FEF717F91F2057
:103A10004FF6FF7372224FF4C87100907420FEF7C6
:103A20000DF91F204FF6FF736422910000907C2057
:103A3000FEF704F93848006800F00105002D63D056
:103A4000A84561D23648006801285DD13448006835
:103A5000401E334908604FF6FF703A234FF4AF72AF
:103A6000202100906420FCF7A5FD1F204FF6FF7376
:103A700045224FF4AF7100906420FEF7DFF81F205D
:103A80004FF6FF7361224FF4AF7100906C20FEF788
:103A9000D5F81F204FF6FF7373224FF4AF710090DB
:103AA0007420FEF7CBF81F204FF6FF7379224FF4F6
:103AB000AF7100907C20FEF7C1F84FF6FF701F2316
:103AC00048224FF4C87100906420FEF7B7F84FF613
:103AD000FF701F2361224FF4C87100906C20FEF725
:103AE000ADF84FF6FF701F2372224FF4C87100909B
:103AF0007420FEF7A3F84FF6FF701F236422910095
:103B000000907C20FEF79AF806B900E019E700BFA4
:103B1000BDE8F883081801400808014020A107000B
:103B20000000002008B54FF6FF704FF448730022E4
:103B30004FF4F07100901046FCF73CFD4FF47840D4
:103B40004FF6FF7355224FF4967100902A20FEF72E
:103B5000B5F84FF478404FF6FF7373224FF4967127
:103B600000903620FEF7AAF84FF478404FF6FF7326
:103B700065224FF4967100904220FEF79FF84FF4B3
:103B800078404FF6FF7320224FF4967100904E203C
:103B9000FEF794F84FF478404FF6FF7355224FF438
:103BA000967100905A20FEF789F84FF478404FF64E
:103BB000FF7353224FF4967100906620FEF77EF853
:103BC0004FF478404FF6FF7341224FF49671009006
:103BD0007220FEF773F84FF478404FF6FF735222CD
:103BE0004FF4967100907E20FEF768F84FF478400D
:103BF0004FF6FF7354224FF4967100908A20FEF71F
:103C00005DF84FF478404FF6FF7320224FF4967121
:103C100000909620FEF752F84FF478404FF6FF736D
:103C200066224FF496710090A220FEF747F84FF4F9
:103C300078404FF6FF736F224FF496710090AE20DC
:103C4000FEF73CF84FF478404FF6FF7372224FF4C2
:103C500096710090BA20FEF731F84FF478404FF695
:103C6000FF7320224FF496710090C620FEF726F8CD
:103C70004FF478404FF6FF7361224FF49671009035
:103C8000D220FEF71BF84FF478404FF6FF73202246
:103C90004FF496710090DE20FEF710F84FF4784054
:103CA0004FF6FF7372224FF496710090EA20FEF7F0
:103CB00005F84FF478404FF6FF7361224FF4967188
:103CC0000090F620FDF7FAFF4FF478404FF6FF73AF
:103CD0006E224FF4967100904FF48170FDF7EEFF65
:103CE0004FF478404FF6FF7364224FF496710090C2
:103CF0004FF48770FDF7E2FF4FF478404FF6FF7303
:103D00006F224FF4967100904FF48D70FDF7D6FF3F
:103D10004FF478404FF6FF736D224FF49671009088
:103D2000881FFDF7CBFF4FF478404FF6FF7320223A
:103D30004FF496710090881DFDF7C0FF4FF4784056
:103D40004FF6FF7364224FF4967100904FF49F700A
:103D5000FDF7B4FF4FF478404FF6FF7369224FF43C
:103D6000967100904FF4A570FDF7A8FF4FF47840CE
:103D70004FF6FF7372224FF4967100904FF4AB70C0
:103D8000FDF79CFF4FF478404FF6FF7365224FF428
:103D9000967100904FF4B170FDF790FF4FF47840AA
:103DA0004FF6FF7363224FF4967100904FF4B77093
:103DB000FDF784FF4FF478404FF6FF7374224FF401
:103DC000967100904FF4BD70FDF778FF4FF4784086
:103DD0004FF6FF7369224FF4967100904FF4C37051
:103DE000FDF76CFF4FF478404FF6FF736F224FF4EE
:103DF000967100904FF4C970FDF760FF4FF4784062
:103E00004FF6FF736E224FF4967100904FF4CF700F
:103E1000FDF754FF4FF478404FF6FF732E224FF416
:103E2000967100904FF4D570FDF748FFFEF75EF8ED
:103E300000F0FCF808BD000008B54FF6FF704FF425
:103E4000487300224FF4F07100901046FCF7B2FB6B
:103E50004FF6FF708C234FF4A5724B210090CA20BF
:103E6000FCF7A8FB4FF4784303224FF4A571CA2056
:103E7000FDF720FC3248FCF709FA4FF6FF708C235F
:103E80004FF4A5724B210090CA20FCF793FB4FF42E
:103E9000784302224FF4A571CA20FDF70BFC284895
:103EA000FCF7F4F94FF6FF708C234FF4A5724B2109
:103EB0000090CA20FCF77EFB4FF4784301224FF4B8
:103EC000A571CA20FDF7F6FB1D48FCF7DFF94FF698
:103ED000FF708C234FF4A5724B210090CA20FCF791
:103EE00069FB4FF4784300224FF4A571CA20FDF717
:103EF000E1FB1348FCF7CAF94FF6FF704FF4487323
:103F000000224FF4F07100901046FCF753FB05209F
:103F1000FCF74CFAFEF74AFE41F61F4142F20F70E1
:103F2000FDF76EFF40F2CF2140F2F310FDF78AFF5C
:103F300040F2CF2140F2CF70FDF7AEFF08BD000088
:103F4000809698007047000010B51348006840F054
:103F500001001149086008464068104908400E49B0
:103F60004860084600680E4908400B49086008464A
:103F7000006820F4802008600846406820F4FE00B5
:103F800048604FF41F008860FEF78DFE4FF0006020
:103F90000449086010BD0000001002400000FFF856
:103FA000FFFFF6FE08ED00E010B54FF08040008AFC
:103FB00000F0010020B10748006808B900F07EFB5E
:103FC0004FF08040008A20F001004FF080410882CD
:103FD00010BD00002800002010B50748008800F040
:103FE000010008B1FDF7F2FF0348008820F001004E
:103FF0000149088010BD00001008004010B50A48B3
:10400000008800F0010038B1FEF79EF94CF2503004
:10401000FCF73CF900F0FCFA0348008820F00100AE
:104020000149088010BD0000100C004038B5FE4862
:10403000008800F0200000287DD0FB48001D048887
:10404000AFE2002C52D10020F84908604FF6FF7013
:104050004FF4784353224FF4F0710090C620FDF7DF
:104060002DFE4FF6FF704FF4784355224FF4F07158
:104070000090D220FDF722FE4FF6FF704FF47843F8
:1040800043224FF4F0710090DE20FDF717FE4FF64B
:10409000FF704FF4784343224FF4F0710090EA2010
:1040A000FDF70CFE4FF6FF704FF4784345224FF4B6
:1040B000F0710090F620FDF701FE4FF6FF704FF40F
:1040C000784353224FF4F07100904FF48170FDF764
:1040D000F5FD4FF6FF704FF4784353224FF4F07123
:1040E00000904FF48770FDF7E9FD5BE2012C54D19D
:1040F0000120CE4908604FF6FF704FF478435322F9
:104100004FF4F0710090C620FDF7D8FD4FF6FF7018
:104110004FF4784355224FF4F0710090D220FDF710
:10412000CDFD4FF6FF704FF4784343224FF4F0710A
:104130000090DE2000E03BE2FDF7C0FD4FF6FF708F
:104140004FF4784343224FF4F0710090EA20FDF7DA
:10415000B5FD4FF6FF704FF4784345224FF4F071F0
:104160000090F620FDF7AAFD4FF6FF704FF478435C
:1041700053224FF4F07100904FF48170FDF79EFDD3
:104180004FF6FF704FF4784353224FF4F0710090D4
:104190004FF48770FDF792FD04E2022C52D1022009
:1041A000A24908604FF6FF704FF4784353224FF452
:1041B000F0710090C620FDF781FD4FF6FF704FF4BF
:1041C000784355224FF4F0710090D220FDF776FD30
:1041D0004FF6FF704FF4784343224FF4F071009094
:1041E000DE20FDF76BFD4FF6FF704FF4784343225E
:1041F0004FF4F0710090EA20FDF760FD4FF6FF707C
:104200004FF4784345224FF4F0710090F620FDF70B
:1042100055FD4FF6FF704FF4784353224FF4F07181
:1042200000904FF48170FDF749FD4FF6FF704FF499
:10423000784353224FF4F07100904FF48770FDF7EC
:104240003DFDAFE1032C52D10320784908604FF6C1
:10425000FF704FF4784353224FF4F0710090C62062
:10426000FDF72CFD4FF6FF704FF4784355224FF4C5
:10427000F0710090D220FDF721FD4FF6FF704FF452
:10428000784343224FF4F0710090DE20FDF716FDD5
:104290004FF6FF704FF4784343224FF4F0710090D3
:1042A000EA20FDF70BFD4FF6FF704FF478434522EF
:1042B0004FF4F0710090F620FDF700FD4FF6FF700F
:1042C0004FF4784353224FF4F07100904FF4817013
:1042D000FDF7F4FC4FF6FF704FF4784353224FF490
:1042E000F07100904FF48770FDF7E8FC5AE1042C60
:1042F00052D104204D4908604FF6FF704FF47843C7
:1043000053224FF4F0710090C620FDF7D7FC4FF612
:10431000FF704FF4784355224FF4F0710090D22093
:10432000FDF7CCFC4FF6FF704FF4784343224FF477
:10433000F0710090DE20FDF7C1FC4FF6FF704FF4E6
:10434000784343224FF4F0710090EA20FDF7B6FC69
:104350004FF6FF704FF4784345224FF4F071009010
:10436000F620FDF7ABFC4FF6FF704FF47843532275
:104370004FF4F07100904FF48170FDF79FFC4FF601
:10438000FF704FF4784353224FF4F07100904FF4D4
:104390008770FDF793FC05E1052C58D105202349D2
:1043A00008604FF6FF704FF4784353224FF4F071DA
:1043B0000090C620FDF782FC4FF6FF704FF4784363
:1043C00055224FF4F0710090D220FDF777FC4FF6A4
:1043D000FF704FF4784343224FF4F0710090DE20D9
:1043E000FDF76CFC4FF6FF704FF4784343224FF417
:1043F000F0710090EA20FDF761FC4FF6FF704FF47A
:10440000784345224FF4F0710090F620FDF756FCFA
:104410004FF6FF704FF4784353224FF4F071009041
:104420004FF4817004E00000003801401C000020BF
:10443000FDF744FC4FF6FF704FF4784353224FF4DE
:10444000F07100904FF48770FDF738FCAAE0062C5D
:1044500052D10620574908604FF6FF704FF4784359
:1044600053224FF4F0710090C620FDF727FC4FF661
:10447000FF704FF4784355224FF4F0710090D22032
:10448000FDF71CFC4FF6FF704FF4784343224FF4C6
:10449000F0710090DE20FDF711FC4FF6FF704FF435
:1044A000784343224FF4F0710090EA20FDF706FCB8
:1044B0004FF6FF704FF4784345224FF4F0710090AF
:1044C000F620FDF7FBFB4FF6FF704FF478435322C5
:1044D0004FF4F07100904FF48170FDF7EFFB4FF651
:1044E000FF704FF4784353224FF4F07100904FF473
:1044F0008770FDF7E3FB55E0072C52D107202D49CB
:1045000008604FF6FF704FF4784353224FF4F07178
:104510000090C620FDF7D2FB4FF6FF704FF47843B2
:1045200055224FF4F0710090D220FDF7C7FB4FF6F3
:10453000FF704FF4784343224FF4F0710090DE2077
:10454000FDF7BCFB4FF6FF704FF4784343224FF466
:10455000F0710090EA20FDF7B1FB4FF6FF704FF4C9
:10456000784345224FF4F0710090F620FDF7A6FB4A
:104570004FF6FF704FF4784353224FF4F0710090E0
:104580004FF48170FDF79AFB4FF6FF704FF47843BC
:1045900053224FF4F07100904FF48770FDF78EFBBB
:1045A00000E04EE500BF0448FBF770FEFFF744FC57
:1045B00038BD00001C000020002D310100BFFEE7C7
:1045C000FCF74EF8FBF77EFEFBF7C8FEFBF764FE38
:1045D00049F696014820FDF799FC4FF6FF70FBF76E
:1045E000F9FE0A48FBF752FEFEF7D2FB0748FBF73D
:1045F0004DFEFFF7A3F90548FBF748FEFFF792FAD7
:104600000248FBF743FE00BFFEE7000040420F00F8
:1046100000B524480068C0F3C0002349086008467C
:104620000068A8B96420FBF731FE1F48006878B91C
:104630001D4800681D490968884209D21C48006865
:1046400018B901201A49086002E0002018490860E2
:10465000FEF7E4FAC0F3C000164908600846006897
:10466000012816D16420FBF711FE124800680128CA
:104670000FD11048006810490968884209D90C48D0
:10468000006818B901200A49086002E000200849C2
:104690000860054800680549086006480068064942
:1046A000086000BD08180140300000202C000020E8
:1046B00028000020380000203400002038B54FF6D4
:1046C000FF704FF4784374224FF4967100900A20E3
:1046D000FDF7F4FA4FF6FF704FF4784369224FF478
:1046E000967100901620FDF7E9FA4FF6FF704FF42F
:1046F00078436D224FF4967100902220FDF7DEFA88
:104700004FF6FF704FF4784365224FF49671009096
:104710002E20FDF7D3FA4FF6FF704FF478433A227C
:104720004FF4967100901046FDF7C8FA4FF6FF70EF
:104730004FF478436D224FF4967100905220FDF7AC
:10474000BDFA4FF6FF704FF4784373224FF4967121
:1047500000907620FDF7B2FA4FF6FF704FF47843E1
:1047600062224FF4A27100900A20FDF7A7FA4FF6DB
:10477000FF704FF478436F224FF4A271009016201F
:10478000FDF79CFA4FF6FF704FF4784375224FF413
:10479000A27100902220FDF791FA4FF6FF704FF4BE
:1047A00078436E224FF4A27100902E20FDF786FA16
:1047B0004FF6FF704FF4784363224FF4A2710090DC
:1047C0003A20FDF77BFA4FF6FF704FF478436522ED
:1047D0004FF4A27100904620FDF770FA4FF6FF707B
:1047E0004FF4784373224FF4A27100905220FDF7EA
:1047F00065FA4FF6FF704FF478433A224FF4A271F6
:1048000000905E20FDF75AFA3F4800683C21B0FB5B
:10481000F1F03030C4B24FF6FF704FF478432246C7
:104820004FF4967100904620FDF748FA364800682C
:104830003C21B0FBF1F201FB12000A21B0FBF1F0C8
:1048400000F130044FF6FF704FF4784322464FF4E6
:10485000967100905E20FDF731FA2B4800680A211E
:10486000B0FBF1F201FB120000F130044FF6FF70D3
:104870004FF4784322464FF4967100906A20FDF77A
:104880001DFA21480068401C1F4908601F48006845
:10489000282801D8012000E000201C490968B1F552
:1048A0003E7F01D3012100E00021084320B11848D8
:1048B0000068401C16490860154800680A21B0FBD2
:1048C000F1F03030C4B24FF6FF704FF47843224617
:1048D0004FF4A27100906A20FDF7F0F90C480068CF
:1048E0000A21B0FBF1F201FB120000F130044FF697
:1048F000FF704FF4784322464FF4A2710090762067
:10490000FDF7DCF938BD0000200000201000002079
:104910002400002090EA010F48BF81F0004100F11F
:104920002E82421A3CBF801A89184FEAD0524FF0AB
:104930007F4C1CEA410FA2EBD15318BF9CEA026FD7
:1049400000F03B804FF0004C4CEA00204CEA012183
:1049500021FA03FC10EB0C0C1ED202F1FF325FEACD
:104960001C2040EBC25038BF70471CF07F0F4FEA4D
:10497000400C18BFBCF17F4F38BF7047C3F1200314
:10498000994008BF20F00100BCF17F4F38BF70474D
:10499000A0F1C04000F0DDB94FEA3C00000A40EB56
:1049A000C25028BF1CF0FF0F4FEA400CE6D018BFE2
:1049B000BCF17F4F38BF7047EAE79CEA026F05D031
:1049C00010EA5C0F08BF00F00040704710B500F01F
:1049D0007AF900BF64FBBE3E4FF47F0C1CEAD01294
:1049E0001EBF1CEAD11392EA0C0F93EA0C0F00F0E1
:1049F000858090EA010F48BF42F4807240F4000CB9
:104A000041F400002CF07F4120F07F4000B581424E
:104A1000A2EB03020FF2081CACEB504EC0F10000F9
:104A20009EF800E04FEA4E0E00FB0EFC38BF490036
:104A30004FEA2C1C02F5FA020CFB0EF34FEACE1ED5
:104A40004FEA112C4FEAC1210EEB635E42EB22428A
:104A50000EFB0CFC4FEA1C5300FB03114FEA112C18
:104A60004FEA01310EFB0CFC4FEADC4C00FB0C1151
:104A7000C14228BF09184CEB03335DF804EB10EB7F
:104A8000410143EBC250B2F57C0F38BF704729D5C6
:104A900012F0F00F1CBF00F1C04000F00040704762
:104AA000008182838485868788898B8C8D8E8F9107
:104AB0009293959697999A9C9D9FA0A2A3A5A7A82B
:104AC000AAACAEB0B2B3B5B7B9BCBEC0C2C5C7C957
:104AD000CCCED1D4D7D9DCDFE2E6E9ECF0F3F7FABB
:104AE000FE0000004FEA400C0CF1807CBCF17E4FD0
:104AF00028BF7047B0F1C04000F02BB990EA010F19
:104B00000CEAD11348BF42F48072624538BF634556
:104B100007D213F47F0F16D080EA010000F00040A6
:104B2000704710B500F0CFF8097EFC3E00F005B8E4
:104B300080EA010000F00040704780EA010000F0C8
:104B4000004000F006B912F47F0F04BF024870471E
:104B500080EA010000F0FDB80000C07FC10DD1F176
:104B60009E0206DB4FEA002343F0004323FA02F0E3
:104B70007047004207D54FEA4001B1F1FE4F02D223
:104B80004FF00000704710B500F09DF84992248066
:104B9000002070476FEA200070470000B0FA80F3F1
:104BA00010FA03F2C3F19D030AD0D90501EB1220DC
:104BB000530638BF704700F1010008BF20F0010024
:104BC000704700004FF47F0C1CEAD0121EBF1CEA95
:104BD000D11392EA0C0F93EA0C0F00F0478090EA91
:104BE000010F48BF42F480724FF0004C4CEA0020A5
:104BF0004CEA012102EB0302A0FB0113A2F5000223
:104C0000002918BF43F001035B0028BF4FEA3303BC
:104C100042EB22425FEA132C4CEBC2502EBFBCEB9E
:104C2000436FB2F57C0F70474FEA036CBCF1004F45
:104C300008BF20F00100B2F57C0F38BF70470BD5DC
:104C400082F0FF0212F5803FC8BF704700F1C040FC
:104C5000D8BF00F00040704700F5000C5FEA4C0C34
:104C600048BF7047B0F1C04000F073B890EA010F40
:104C70000CEAD11348BF42F48072624538BF6345E5
:104C800004D280EA010000F00040704710B500F047
:104C90001AF800BF8900013E00F007B800F009B81B
:104CA0005FEA410C5FEA1C6C08D080EA010000F06A
:104CB00050B85FEA400C5FEA1C6CF6D14FF0004040
:104CC000A0F5800070470EF1020E2EF0030E5EF884
:104CD000044B244204D44FEA4102B2F17F4F11D871
:104CE0004FEA4003B3F17F4F0CD80ED14FEAD07C8E
:104CF000B2F17F4F0CEB4C0C0CF1020C08BF4CEBEB
:104D0000D17C04E04FF0080C01E04FEAD17C0CEBC1
:104D10004C0324FA03F404F00704B4F1040C06D2A3
:104D20000EEB840CBDE810404CF0010C6047DFE84E
:104D30000CF0070802024FF00040A0F5800010BD03
:104D40000846420018BFD2F1807288BF00F00040D0
:104D500010BDFF2141EAD050C005704780F00040EF
:104D600090EA010F7FF5DDAD81F0004100F007B85A
:104D700090EA010F48BF81F000413FF5D2AD421AE1
:104D800004D882F00042A0EB020011444FEAD05256
:104D90004FF07F4C1CEA410FA2EBD15318BF9CEAA5
:104DA000026F4AD04FF0004C4CEA00204CEA01213F
:104DB00021FA03FCB0EB0C0C0FD412F0FE0F36D02E
:104DC0005FEA4C001DD5001240EBC25038BF70475F
:104DD0001CF03F0F18BF70470BE0A2F101025FEA21
:104DE0001C2040EBC25038BF70471CF07F0F18BF2B
:104DF0007047C3F12003994014BF401E20F001000A
:104E0000704780084FEA122308BF7047B0FA80FC51
:104E1000A2EB0C02CCF1280C60FA0CF093EA122FF2
:104E200004BF00EBC25070474FEAC3707047130ACB
:104E30005FEADC1008BF7047F6E79CEA026F04D017
:104E400010EA5C0F08BF0020704710B5FFF73BFF6A
:104E500040DFF63E81F00040704700000000000097
:104E6000000000000000000000003F4000000000C3
:104E70000000000030004000300040000000090049
:104E80000BC03D000BC03D00090018C024407FE06E
:104E9000224031800000180024C01B000D803240E9
:104EA000018003801C4027401C8007400040100008
:104EB0006000000000000000000000000000000092
:104EC0001F80204040200000402020401F80000024
:104ED0000000090006001F80060009000000040011
:104EE00004003F8004000400000000100060000087
:104EF000000000000000040004000400040004009E
:104F00000000000000400000000000000000002041
:104F100001C006003800400000001F8020402040F3
:104F200020401F800000000010403FC000400000F3
:104F3000000018C02140224024401840000010808A
:104F40002040244024401B80000002000D0011007E
:104F50003FC0014000003C80244024402440238086
:104F600000001F80244024403440038000003000B3
:104F7000200027C03800200000001B80244024406F
:104F800024401B8000001C0022C0224022401F80C1
:104F900000000000000008400000000000000000C9
:104FA00000000460000000000000000004000A008F
:104FB0001100208040400900090009000900090093
:104FC000000000004040208011000A00040018008A
:104FD000200023402400180000001F8020402740AC
:104FE00029401F400000004007C039000F0001C0E9
:104FF000004020403FC0244024401B8000001F8010
:105000002040204020403080000020403FC0204011
:1050100020401F80000020403FC024402E4030C070
:10502000000020403FC024402E00300000000F0050
:105030001080204022403380020020403FC0040006
:1050400004003FC02040204020403FC0204020407E
:1050500000000060202020203FC0200020002040D1
:105060003FC024400B0030C0204020403FC02040C3
:105070000040004000C03FC03C0003C03C003FC0B7
:10508000000020403FC00C4023003FC020001F8094
:105090002040204020401F80000020403FC024408E
:1050A0002400180000001F802140214020E01FA0A4
:1050B000000020403FC02440260019C0004018C016
:1050C00024402440224031800000300020403FC076
:1050D00020403000000020003F80004000403F8022
:1050E000200020003E0001C00700380020003800EA
:1050F00007C03C0007C038000000204039C006004F
:1051000039C0204000002000384007C0384020004F
:105110000000304021C02640384020C00000000080
:1051200000007FE0402040200000000070000C00E4
:105130000380004000000000402040207FE000008D
:1051400000000000200040002000000000000010CF
:1051500000100010001000100010000000004000BF
:10516000000000000000000002800540054003C070
:10517000004020003FC004400440038000000000C5
:105180000380044004400640000000000380044007
:1051900024403FC00040000003800540054003401C
:1051A0000000000004401FC02440244020000000F4
:1051B00002E0055005500650042020403FC0044046
:1051C000040003C000400000044027C0004000006D
:1051D000000000100010041027E000000000204034
:1051E0003FC00140070004C00440204020403FC0B1
:1051F00000400040000007C0040007C0040003C0D6
:105200000000044007C00440040003C00040000048
:1052100003800440044003800000041007F00450A1
:10522000044003800000000003800440045007F0A5
:105230000010044007C00240040004000000000009
:1052400006400540054004C00000000004001F8027
:10525000044000400000040007800040044007C0F4
:1052600000400400070004C001800600040006009E
:1052700001C0070001C006000000044006C0010094
:1052800006C0044000000410071004E0018006007E
:1052900004000000044005C0064004400000000077
:1052A000000004007BE0402000000000000000003F
:1052B000FFF000000000000040207BE00400000040
:1052C000000040008000400020002000400000005E
:1052D00000000000000000000000000000000000CE
:1052E000000000001FCC000C0000000000000000C7
:1052F000080030006000080030006000000002205C
:1053000003FC1E20022003FC1E20022000000000DF
:105310000E1811043FFF10840C78000000000F00ED
:1053200010840F3800C007781884007800000078D7
:105330000F8410C411240E9800E4008400080800B3
:105340006800700000000000000000000000000085
:105350000000000007E018182004400200000000D0
:1053600040022004181807E000000000000002407E
:10537000024001800FF001800240024000000080E6
:10538000008000800FF80080008000800000000195
:10539000000D000E000000000000000000000000F2
:1053A000008000800080008000800080008000007D
:1053B000000C000C000000000000000000000000D5
:1053C00000060018006001800600180020000000A0
:1053D00007F0080810041004080807F00000000097
:1053E000080408041FFC0004000400000000000082
:1053F0000E0C10141024104411840E0C0000000038
:105400000C1810041104110412880C700000000024
:1054100000E00320042408241FFC002400000000F6
:105420001F981084110411041088107000000000EF
:1054300007F00888110411041888007000000000AB
:105440001C00100010FC13001C00100000000000E5
:105450000E3811441084108411440E3800000000EE
:105460000700088C10441044088807F00000000072
:1054700000000000030C030C00000000000000000E
:105480000000000101060000000000000000000014
:1054900000800140022004100808100400000220CF
:1054A0000220022002200220022002200000000030
:1054B00010040808041002200140008000000000D1
:1054C0000E001200100C106C10800F00000003E0A2
:1054D0000C1813E4142417C4082807D00000000493
:1054E000003C03C41C40074000E4001C00041004FE
:1054F0001FFC1104110411040E880070000003E069
:105500000C1810041004100410081C1000001004E3
:105510001FFC100410041004080807F00000100419
:105520001FFC1104110417C4100408180000100413
:105530001FFC1104110017C010000800000003E058
:105540000C181004100410441C78004000001004D3
:105550001FFC10840080008010841FFC10040000D9
:10556000100410041FFC10041004000000000003CD
:105570000001100110011FFE1000100000001004B7
:105580001FFC110403801464181C10040000100494
:105590001FFC1004000400040004000C00001004B0
:1055A0001FFC1F0000FC1F001FFC10040000100463
:1055B0001FFC0C04030000E010181FFC100007F093
:1055C0000808100410041004080807F00000100474
:1055D0001FFC10841080108010800F00000007F066
:1055E000081810241024101C080A07F200001004E8
:1055F0001FFC1104110011C011300E0C000400003A
:105600000E1C11041084108410441C380000180073
:10561000100010041FFC10041000180000001000FF
:105620001FF810040004000410041FF810001000FC
:105630001E0011E0001C007013801C0010001FC031
:10564000103C00E01F0000E0103C1FC000001004F0
:10565000180C163401C001C01634180C10041000C8
:105660001C00130400FC13041C00100000000804BC
:10567000101C1064108413041C0410180000000097
:10568000000000007FFE40024002400200000000D7
:1056900030000C0003800060001C000300000000CC
:1056A0004002400240027FFE0000000000000000B7
:1056B00000002000400040004000200000000001E9
:1056C00000010001000100010001000100010000D3
:1056D000400040002000000000000000000000002A
:1056E0000098012401440144014400FC000410001E
:1056F0001FFC008801040104008800700000000005
:10570000007000880104010401040088000000000A
:10571000007000880104010411081FFC000400004F
:1057200000F8014401440144014400C800000000A5
:10573000010401040FFC1104110411001800000001
:1057400000D601290129012901C901060000100420
:105750001FFC008401000100010400FC00040000A3
:105760000104190419FC00040004000000000000FA
:10577000000300010101190119FE000000001004DE
:105780001FFC0024004001B4010C010400000000D3
:10579000100410041FFC00040004000000000104B9
:1057A00001FC0104010001FC0104010000FC0104F2
:1057B00001FC008401000100010400FC0004000061
:1057C00000F8010401040104010400F800000101D3
:1057D00001FF008501040104008800700000000042
:1057E0000070008801040104010501FF00010104AB
:1057F000010401FC0084010401000180000000009C
:1058000000CC01240124012401240198000000009F
:105810000100010007F8010401040000000001007C
:1058200001F8000400040004010801FC0004010068
:1058300001800170000C001001600180010001F086
:10584000010C003001C00030010C01F0010000002B
:105850000104018C00740170018C0104000001013D
:1058600001810171000E001801600180010000003B
:105870000184010C013401440184010C000000008A
:1058800000000000000001003EFC40024002000059
:10589000000000000000FFFF00000000000000000A
:1058A000400240023EFC0100000000000000000039
:1058B00060008000800040004000200020000000C8
:1058C00000000000000000000000000000000000D8
:1058D00000000000000000000000000000000000C8
:1058E00000000000000000000000000000000000B8
:1058F000000F80380FFE380F8038000000000000D5
:105900000000000000000000000000000100000690
:1059100000000C00003800003100000600000C0000
:10592000003800003000000000000000000061802E
:105930000067F807F98000618000618000618000E5
:1059400061800067F807F9800061800000000000B6
:105950000000000001C0E003E0F006300804180871
:105960001FFFFE040E080787F00381E0000000001F
:10597000000001F000060C00040408060C7001F998
:10598000C0000E00003BE000EC18070808040C18EB
:105990000003E00000000001E00007F003F8180435
:1059A0001C0804170807E1D003C0E00023B0003C46
:1059B00008002008000010000000000000010000A6
:1059C0003100003200001C00000000000000000058
:1059D00000000000000000000000000000000000C7
:1059E00000000000000000000000000000007F0038
:1059F00001FFC00780F00C00181000042000020016
:105A000000000000002000021000040C00180780B5
:105A1000F001FFC0007F0000000000000000000057
:105A200000000000000000000000420000660000CE
:105A30006600003C0000180003FFC0001800003C96
:105A40000000660000660000420000000000080040
:105A500000080000080000080000080001FFC00066
:105A6000080000080000080000080000080000000E
:105A70000000000100003100003200001C000000A6
:105A80000000000000000000000000000000000016
:105A900000000000000008000008000008000008E6
:105AA00000000800000800000800000800000800CE
:105AB00000080000000000000000000000003800A6
:105AC0000038000038000000000000000000000066
:105AD00000000000000000000000000000000006C0
